:020000040002F8
:1060000030610020C1630200C9630200CB6302005B
:10601000CD630200CF630200D163020000000000E4
:10602000000000000000000000000000D363020038
:10603000D563020000000000D7630200D9630200AC
:106040002D660200DB630200D5690200DB630200FB
:10605000DB630200DB63020071650200DB630200A8
:10606000DB630200DB630200DB630200DB63020030
:10607000DB630200DB630200DB630200DB63020020
:10608000DB63020081660200DB630200DB63020067
:10609000DB630200DB63020025670200DB630200B2
:1060A000DB630200DB630200DB630200DB630200F0
:1060B000DB630200DB630200000000000000000060
:1060C000DB630200DB630200DB630200DB630200D0
:1060D000DB630200DB630200DB6302000000000000
:1060E00000000000000000000000000000000000B0
:1060F00000000000000000000000000000000000A0
:10610000000000000000000000000000000000008F
:10611000000000000000000000000000000000007F
:10612000000000000000000000000000000000006F
:10613000000000000000000000000000000000005F
:10614000000000000000000000000000000000004F
:10615000000000000000000000000000000000003F
:10616000000000000000000000000000000000002F
:10617000000000000000000000000000000000001F
:10618000000000000000000000000000000000000F
:1061900000000000000000000000000000000000FF
:1061A00000000000000000000000000000000000EF
:1061B00000000000000000000000000000000000DF
:1061C00000000000000000000000000000000000CF
:1061D00000000000000000000000000000000000BF
:1061E00000000000000000000000000000000000AF
:1061F000000000000000000000000000000000009F
:10620000DFF80CD000F076F900480047A5AB02009B
:106210003061002030B450E8012F93B2C489234488
:106220008489A34228BF1B1B0489A34202BFBFF37A
:106230002F8F002007E0C3EA020340E80134002C5E
:10624000E9D14FF001000A6030BC704750E8012FDF
:10625000C2EA024240E801210029F7D1704730B478
:1062600050E8022F1FFAA2F3C488A34202BFBFF373
:106270002F8F00200DE0C48923448489A34228BFC6
:106280001B1BC2EA034340E80234002CE8D14FF064
:1062900001000A6030BC704750E8022FC2EA224277
:1062A00040E802210029F7D17047034653E8022F46
:1062B000D988B2EB324F4FF0000017BF92B241EADB
:1062C000014142EA014104E05A68B2EB324F08BF93
:1062D000012043E80212002AE8D1704730B4044696
:1062E00054E8000F0D4644E80053002BF8D1156028
:1062F00030BC704730B4044654E8000F40EA010552
:1063000044E80053002BF7D1156030BC704730B41F
:10631000044654E8000F00EA010544E80053002B4E
:10632000F7D1156030BC704730B4044654E8000F14
:1063300080EA010544E80053002BF7D1156030BC1A
:10634000704730B4044654E8000F00EB010544E800
:106350000053002BF7D1156030BC704730B40446B1
:1063600054E8000FA0EB010544E80053002BF7D1DF
:10637000156030BC704770B404464FF0000054E81C
:10638000006F0D68AE4207BF44E80023012044E8D7
:1063900000630E60002B1CBF0020F0E770BC70474C
:1063A00030B4044654E8000F88422CBF451A054615
:1063B00044E80053002BF5D1156030BC7047000055
:1063C0000648804706480047FEE7FEE7FEE7FEE78F
:1063D000FEE7FEE7FEE7FEE7FEE7FEE73D670200B9
:1063E000016202002DE9F05F0546002092469B46BF
:1063F00088460646814640241BE0284641464746DB
:10640000224600F067F853465A46C01A914110D30D
:1064100011461846224600F016F82D1A67EB0108BF
:106420004F4622460120002100F00DF817EB00092D
:106430004E41201EA4F10104DFDC484631462A46C5
:106440004346BDE8F09F202A04DB203A00FA02F11F
:10645000002070479140C2F1200320FA03F3194352
:1064600090407047004870473C17030040EA010322
:106470009B0703D009E008C9121F08C0042AFAD2FA
:1064800003E011F8013B00F8013B521EF9D27047BE
:10649000D2B201E000F8012B491EFBD27047002266
:1064A000F6E710B513460A4604461946FFF7F0FF13
:1064B000204610BD421C10F8011B0029FBD1801A98
:1064C0007047034611F8012B00F8012B002AF9D17F
:1064D00018467047202A04DB203A21FA02F00021F6
:1064E000704721FA02F3D040C2F1200291400843E4
:1064F00019467047064C074D06E0E06840F001037E
:1065000094E8070098471034AC42F6D3FFF77CFEBE
:106510001C2003003C20030070B58C1810F8015BB0
:1065200015F0070301D110F8013B2A1106D110F82C
:10653000012B03E010F8016B01F8016B5B1EF9D130
:106540002B0705D40023521E0DD401F8013BFAE7B6
:1065500010F8013BCB1A921C03E013F8015B01F821
:10656000015B521EF9D5A142D8D3002070BD0000B6
:106570002DE9F84F0026002000904FF48077012588
:10658000002410E0384605F0D5FF40B100BF254893
:106590000068284018B1384605F0BEFF2E436D0054
:1065A000381D87B2641C082CECD34FF4BE7005F084
:1065B000C1FF50B14FF4BE7005F0AEFF46F000468B
:1065C0006A460121002005F037FFF0B210B3012523
:1065D00000241DE005EA0600C0B100BF124850F8D3
:1065E0002400C0F30420814600BF0F4850F8240067
:1065F000C0F301408246204602F0D2FB8046B8F14B
:10660000000F02D051464846C04700BF6D00641CD1
:10661000082CDFD306F0004010B1684608F0E6FB16
:10662000BDE8F88F046300401065004010B54FF4DA
:10663000807005F0ECF880B14FF4807005F0F0F850
:10664000012005F0F7F80D48407930B901200B49D9
:10665000487108460168002088474FF4827005F0B1
:10666000D6F850B14FF4827005F0DAF8022005F048
:10667000E1F8024801680120884710BD782B00200E
:1066800010B5034A1068034A1168884710BD00001E
:10669000D42B0020D02B002010B500F0A3F910BDA2
:1066A0002DE9F047074688461646C24607EB4701E4
:1066B0001B4800EBC109D9F8140020B1012811D002
:1066C000022826D11EE0484600F0C4F90546B5422E
:1066D00001D2002405E0344632465146484600F0D7
:1066E00000FA18E0484600F0B5F90546B54201D277
:1066F000284600E03046044622465146484600F00F
:10670000F0F908E032465146484600F0B1F9044637
:1067100001E0002400BF00BF2046BDE8F087000074
:10672000D83C002010B506F081FE10BD014802499A
:10673000086070470090D003942C002010B504F03E
:1067400063FC28B192480088C0F304209149086096
:1067500004F0B6FC10B190489049486704F0F0FC92
:1067600030B18B48E0380068C0F342308C49086093
:1067700004F014FD28B18B48006820F0807089492E
:10678000086004F02BFD48B10020874908604FF0F5
:106790008041C1F810018249091F086004F04CFDD6
:1067A00018B103207E496431086004F065FD68B1CA
:1067B00005207E49086001207C497831086000206E
:1067C0007A49083108603F20091F086004F074FD11
:1067D000002855D06E48E0300068754908606C4864
:1067E000E4300068091D08606948E8300068091D48
:1067F00008606748EC300068091D08606448F030A4
:106800000068091D08606248F4300068091D0860CE
:106810005F48F83000686649203108605C48FC3009
:106820000068091D086063480068091D0860614828
:10683000001D0068091D08605E4808300068091DD9
:1068400008605C480C300068091D08605948103029
:106850000068574940310860564814300068091DE7
:106860000860544818300068091D086051481C3001
:106870000068091D08604F4820300068091D086045
:1068800004F094FB30B14248CC38006800F04F006F
:106890004949086004F0E6FB40B14848006800F050
:1068A000010018B16FF001004449086004F028FCB1
:1068B00028B14348006840F4806041490860394885
:1068C0007438006840F4700036497439086000BFBD
:1068D00000BF00BFBFF34F8F00BF00BF00BF00BFAE
:1068E00000BF00BFBFF36F8F00BF00BF00BF3548C0
:1068F000006800F0004028B93248001D006800F030
:106900000040E8B301203049086000BF2F4800680C
:106910000028FBD015202B49086000BF2B480068D9
:106920000028FBD015212748001D016000BF274823
:1069300000680028FBD000202349086000BF2348DE
:1069400000680028FBD000BF00BF00BF00BF00BF31
:10695000BFF34F8F00BF00BF00BF1248F038006880
:1069600000F4E0601A490843001D0E49F039086040
:1069700000BF00BF00BFBFF34F8F00BF00BF00E0EC
:1069800003E000BF00BF00BFFDE7FFF7CFFE10BD73
:1069900024030010403501400DF0ADBA00C007409F
:1069A0003C050040FCED00E00C01004010560040AA
:1069B00020C5004024040010E40E00400004004004
:1069C0003C1700400012001004E5014000E40140C3
:1069D0000000FA0510B502490868804710BD0000A4
:1069E000802B002010B5124C02202061606111A0A4
:1069F000A0611349E1614FF4007121620021A1629D
:106A00006162E1620BA0A0640E49E164102121657E
:106A10000021A1656165E1650BA1E01DFFF751FD56
:106A20000AA12046FFF74DFD2020A07110BD0000F7
:106A3000C03C00205465726D696E616C00000000FE
:106A4000383D0020383F00205254540053454747FA
:106A50004552000010B501460A69CB689A4204D835
:106A60008C68641EE41AA01801E0D41A601E10BDE0
:106A70002DE9F0470446894617464FF0000AE568BD
:106A800000BFD4F81080A84503D9A8EB0500461E26
:106A900004E0A5EB0800401CA1680E1AA068401B8A
:106AA000B04201D9304601E0A068401B0646BE4214
:106AB00001D2304600E03846064661684819324641
:106AC0004946FFF7D3FCB244B144BF1B3544A0682C
:106AD000A84200D10025E560002FD2D15046BDE884
:106AE000F0872DE9F047044689461546E668A06818
:106AF000871BAF4208D9616888192A464946FFF7C3
:106B0000B5FC7019E06010E0B8466168881942462B
:106B10004946FFF7ABFCA5EB070809EB0701424626
:106B20006068FFF7A3FCC4F80C80BDE8F08702E0C2
:106B300008C8121F08C1002AFAD170477047002008
:106B400001E001C1121F002AFBD170470146202934
:106B500008DA012088400A4A104008B10120704735
:106B60000020FCE7402909DAA1F12000012202FA05
:106B700000F008B10120F2E70020F0E70120EEE785
:106B8000FC06FFBD00BFEFF31081084672B67047E8
:106B9000014601F0030008B9012070470020FCE71E
:106BA000024650680068401E084008B9012070473E
:106BB0000020FCE70246002104E0505C08B10120FF
:106BC0007047491C0629F8D30020F9E710B50346A1
:106BD000D868884206D88818401E1C69A04201D88F
:106BE000012010BD0020FCE710B504466CB1084838
:106BF000C068A04209D806480069A04205D32046D3
:106C000003F0EBFE08B1012010BD0020FCE70000FE
:106C1000982C002070B504460D4604F22740FFF77B
:106C2000C9FF0646012D06D0022D0DD0032D11D02F
:106C3000042D19D113E0A07928B194F8240010B9DB
:106C40000EB1012070BD00BFE07910B10EB102207D
:106C5000F8E700BF207A08B10320F3E700BF607AAD
:106C600008B10420EEE700BF0020EBE70146481C16
:106C7000052290FBF2F302FB1300C0B270470146FD
:106C800091F82420012A01D1EE2000E01F20704756
:106C900010B504462C212046FFF701FC012020718D
:106CA0004FF4A07020610020606110BD30B5ABB022
:106CB000AC216846FFF7F3FB02208DF800000020AE
:106CC0008DF8020006208DF803000121ADF84C106C
:106CD0000F49149101218DF87C104FF4A07122917D
:106CE000002123910B48299069460B4800F0EDFCE8
:106CF000044600BF254625B100BF284600F0F2F843
:106D000000BF00BF0121044800F0DCFC2BB030BD07
:106D1000302B002075E00200CC2C002070B5032140
:106D2000064800F07DFD044600BF254625B100BFA2
:106D3000284600F0D7F800BF00BF70BDCC2C002063
:106D400010B50446022001F01BFC10BD10B5002454
:106D500007E00749096811F83400012106F024FD15
:106D6000641C044800788442F3D3002010BD000066
:106D7000882B00208C2B00202DE9F84306460D4679
:106D800017460A2F02D20720BDE8F88306F050FE0E
:106D900038B906F0E3FD044600BF204600B1F3E732
:106DA00000BF184806601848057018480760184862
:106DB0000021016041608160C160164A116051602C
:106DC00015E006EBC50814480068009098F802002A
:106DD0008DF8010098F80000104A694606F03AFD67
:106DE000044600BF204600B1CEE700BF00BF281E0A
:106DF000A5F10101CDB2E4D1094A0021094800F012
:106E00000BF9C1E7882B00208C2B0020902B002051
:106E100058360020982B00206C130300BDA40200FC
:106E2000A59302006813030072B600BF05F0E4FEEC
:106E300000BF00BF05F07AFC0028FBD100BF00BFF7
:106E40001D491E4A891AC908012242EA01401CA1B3
:106E500005F0FAFD00BF1D48006800F0010000B118
:106E600000BE00BF1449154A891AC908022242EA25
:106E7000014017A105F0E8FD00BF00BF00BF00BF43
:106E800000BFBFF34F8F00BF00BF00BF0F48E43803
:106E9000006800F4E06012490843001D0B49E43922
:106EA000086000BF00BF00BFBFF34F8F00BF00BF2F
:106EB00000BF00BF00BFFDE7A42003004C2003007B
:106EC000466174616C206572726F7200F0ED00E0D3
:106ED00053797374656D20726573657400000000EA
:106EE0000000FA053EB50446002000900190029093
:106EF00002946A46002144F20100FFF795FF3EBD6F
:106F000070B504460D46204602F0C6FF28B129465A
:106F1000204602F0B5FF002070BD0520FCE70346C7
:106F200009B90E20704712B1501E104008B1092057
:106F3000F8E71960501E988000209860D86000BF64
:106F4000F0E770B504460D46204602F0A5FFA18883
:106F5000884205D82946204602F0B1FF002070BDC6
:106F60000420FCE710B50446022C0AD10C490D4A56
:106F7000891AC908032242EA01400BA105F064FD09
:106F800001E0012010BD00BF0549064A891AC90861
:106F9000032242EA014010A105F056FD0120F1E76D
:106FA000A42003004C200300506F776572206D61B0
:106FB0006E6167656D656E742077616E74732074A1
:106FC0006F20726573657420746F20444655206D80
:106FD0006F64652E00000000506F776572206D6150
:106FE0006E6167656D656E7420616C6C6F7765644A
:106FF00020746F20726573657420746F2044465549
:10700000206D6F64652E000010B5024802F068FA2A
:1070100010BD0000A02B002010B503460C460AB995
:10702000072010BD19684A61012C01D1012000E040
:10703000002008610020F4E738B51348006800908C
:107040000823582211491248006804F06EF90446DA
:107050000CB1204638BD0F4A69460F4802F046FA87
:1070600004460CB12046F5E701210B4802F0E4FA92
:1070700001230A4A1946084802F004FA0120084987
:1070800008702046E6E70000801303006836002001
:10709000701303006FF80200A02B0020FFFF7F0099
:1070A000AC2B00202DE9F04106460D46174634462C
:1070B000207F10B10020BDE8F081A76103F0E0F966
:1070C000401941F10001C4E90201206900B12561C4
:1070D0002146002009F012FAEDE770B50446254676
:1070E000002028772946012009F008FA70BD000029
:1070F0002DE9F04104460F48077821460E48FFF776
:10710000FFFE804697B100200A49087001220B4912
:107110000B4804F0EBFC054600BF2E4626B100BF2D
:107120003046FFF7DFFE00BF00BF00BF4046BDE8AE
:10713000F0810000F62B0020E8360020F52B00201F
:10714000DC2B00202DE9F04188B004460E4617469E
:1071500098462B4807601EB9072008B0BDE8F081AB
:10716000B08882B227483168FFF7D9FE054600BFD4
:10717000284600B1F1E700BFB08982B22248B16869
:10718000FFF7CDFE054600BF284600B1E5E700BF8A
:1071900020221E496846FFF769F960690690207C45
:1071A00008B1012000E000208DF814008DF81C804B
:1071B000607C08B10E2000E000208DF81500E0682A
:1071C0000290A06803902068019060680090104AC7
:1071D0006946104804F044FC054600BF284600B14B
:1071E000BBE700BF00200C4908702068401C28B194
:1071F00001220A49074804F079FCAEE70020ACE719
:10720000F02B0020E8360020F8360020041503009B
:1072100085070300DC2B0020F62B0020F52B002037
:107220002DE9F041054629461448FFF78AFE064637
:1072300006BB134C002720781249085C20B1201DA2
:1072400006F008FF074608E020780E49085C20B9E0
:1072500004F10C0006F0A6FD074600BF57B90A4925
:107260000648FFF74DFE28B901220749044804F0FB
:107270005FFC06463046BDE8F0810000F83600208D
:10728000DC2B0020742B0020F42B002010B50446CA
:10729000204608F077FC10BD70B5044625460E4820
:1072A0008068B0B1ADB9FFF76DFC06460A480068CA
:1072B0000A490860084840684FF0E021C1F804011D
:1072C0000020054988601EB900BF62B600BF00BF3C
:1072D00000BF00BF70BD0000DC36002000E100E010
:1072E000F8B505460C4617462088001DB84201D95E
:1072F0000C20F8BD684679DF064600BF304600B175
:10730000F7E700BF0320218868542088401C2080B4
:107310001920218868542088401C20802088411929
:10732000BDF8000009F08AFC218808442080002074
:10733000DFE770B505460C462068401C28B1206880
:1073400005F0B1F8206805F045F86068401C18B1F8
:107350000021606805F024F82868A169C0F82415A8
:1073600000BF617D227D286841EA0203C0F86C35C8
:1073700000BFD4E90012286806F07FF9207D0128BB
:1073800014D1A068401C18B10021A06805F008F8CD
:10739000E068401C28B1E06805F085F8E06805F079
:1073A00019F8D4E90221286806F050F970BD70B5CB
:1073B00005460C462068401C28B1206805F07EF880
:1073C000206805F013F86068401C18B1002160685F
:1073D00004F0F3FF2868A169C0F8241500BF617D9F
:1073E000227D286841EA0203C0F86C3500BFD4E969
:1073F0000012286806F079F9207D012814D1A068D0
:10740000401C18B10021A06804F0D7FFE068401CC0
:1074100028B1E06805F052F8E06804F0E7FFD4E92D
:107420000221286806F042F970BD0000002114E036
:107430000C48D0F81024012308E000BFD068007980
:10744000884201D1002303E0D0680268002AF4D109
:1074500000BF0BB108467047491C0A29E8DB4FF012
:10746000FF30F8E7A03800202DE9F04104460F4630
:10747000154615B90E20BDE8F0810020286000BF38
:107480000CB90E20F7E700BF00BF206808B90E2036
:10749000F1E700BF00BFE088C11700EB91718910D0
:1074A000A0EB810109B10720E5E700BF384600F0F5
:1074B000BFFAC6B2142E01D10520DCE72079B04214
:1074C00001DC0420D7E7E188206806FB0100286082
:1074D0000020D0E72DE9FC410546884616460024E9
:1074E00037880020308095F82D0058B13A46314653
:1074F000404600F0C1FA044600BF204608B1BDE88E
:10750000FC8100BFA87850B13A4631464046FFF7AB
:10751000E7FE044600BF204600B1F0E700BFE87870
:1075200060B1E97848B23B463246414602F0F9FC88
:10753000044600BF204600B1E1E700BF686868B1BB
:10754000696891F900003B463246414609F063F80C
:10755000044600BF204600B1D1E700BF28890028BB
:107560000EDD43460622022105F10800CDE9006741
:1075700009F046FC044600BF204600B1BFE700BF4B
:10758000288A00280EDD43460722032105F110005A
:10759000CDE9006709F034FC044600BF204600B185
:1075A000ADE700BF288B00280EDD434615221421CD
:1075B00005F11800CDE9006709F022FC044600BF80
:1075C000204600B19BE700BF286A58B13B463246CF
:1075D0004146286A01F0B4FD044600BF204600B1D0
:1075E0008DE700BF686A58B13B4632464146686A3B
:1075F00003F068FB044600BF204600B17FE700BFF0
:1076000095F82C0000280BDD3B46324641462846C3
:1076100008F0CCFB044600BF204600B16FE700BF76
:10762000287858B13B4632464146284603F05AFC7A
:10763000044600BF204600B161E700BF20465EE778
:10764000F8B504460E461546002000902B466A46C3
:107650003146204600F008F807460FB90020F8BD73
:10766000BDF800002044FAE7F0B504460D461E467A
:1076700004B10AB90020F0BD002103E0605C401CA9
:10768000084481B2481CA84206DA10888842F5DC1A
:10769000481C205CB042F1D1A94201DB0020EAE79E
:1076A000881C87B2605C10B1605C401E00E0002066
:1076B00083B213B1F818A84201DD0020DBE7178080
:1076C0001846D8E780F83010704770B504460D466C
:1076D00005B10CB90E2070BD05F1780001F0D1FCA8
:1076E00008B90720F7E70020A0702C2205F17801E7
:1076F000201DFEF7BBFE002084F83000D5F8A40062
:107700006063D5F8A800A0634FF6FF70A4F82404C6
:1077100004F58260C4F82004002140F22C40C4F833
:107720002614A4F82A140155207810B9FF2084F8F3
:10773000540004F15500C4F810042046FFF79FFAE6
:1077400040F21441085304F2144204F15501284652
:10775000FFF7C0FE064600BF304600B1BBE700BFE2
:1077600004F231204FF4836108512046FFF787FA75
:10777000A4F81C044FF48360015904F21C4205F183
:107780003C00FFF7A7FE064600BF304600B1A2E767
:1077900000BF012151200155208B81B248200153A7
:1077A000012084F83C0000212164502001556169CA
:1077B000616404F13C02002104F1540072DF0646CA
:1077C00000BF304600B186E700BF01202070304680
:1077D00081E770B504460D462C222946201DFEF790
:1077E00045FE70BD70B504460D462E462088102813
:1077F00004D0112807D026280FD109E021463046B1
:1078000006F064FD0AE02146304606F071FE05E010
:107810002146304607F033F800E000BF00BF70BDDE
:1078200070B504460E46207808B9082070BDA670D1
:10783000002140F22C40C4F82614A4F82A14015563
:10784000A07910B1A078012809D0E07910B1A07812
:10785000012804D0E07970B1A07802280BD1606BC8
:1078600030B1012084F82D040820616B884702E0C4
:10787000002084F82D0431462046FFF7CBF9A07094
:10788000606BA0B1A078032802D0A07804280ED1A4
:10789000607960B194F82E0448B9002084F830046F
:1078A000012084F82F040720616B884702E0002044
:1078B00084F82F04182104F13C00FEF7F0FD0120AC
:1078C00084F83C0004F12C0007F044FA20B194F84D
:1078D0002C105120015502E001215120015594F84E
:1078E000240060B104F1280007F034FA20B194F8C4
:1078F00028105220015502E001215220015500219B
:1079000050200155A078052824D2DFE800F01F039D
:107910000A11180004F13C01204608F0EBFA054674
:1079200019E004F13C01204608F0CCFA054612E0CB
:1079300004F13C01204608F0EFFA05460BE004F1A3
:107940003C01204608F016FB054604E0002084F8C0
:10795000310000E000BF00BFA07898B104F13C0204
:1079600004F15400D4F8201472DF05460DB1284606
:107970005CE794F8301094F8540073DF05460DB1BD
:10798000284653E7606B18B194F83100616B884763
:1079900000204BE72DE9F041044600BF14B90E204A
:1079A000BDE8F08100BF1C2221461C48FEF75EFDA9
:1079B0001B481A490860206860B120687ADF0546D4
:1079C0000DB12846ECE7164821680A68026049684C
:1079D000416005E012487BDF05460DB12846DFE730
:1079E000002617E006EB86000E4901EB800700BF7A
:1079F0004FF6FF70388000BF0B4800EB46107860F0
:107A00000A4A0021381DFFF707FB05460DB1032088
:107A1000C6E7761C002EE5D00020C1E7DC3400204C
:107A2000622B0020C8340020A8340020250D03005C
:107A300010B50446204600F011F808B1204610BDEC
:107A40001420FCE770B504460D46034988682A46B1
:107A5000214602F0CFFA70BDF834002010B504467C
:107A6000142C01DB002010BD2146024803F0B8FCB5
:107A7000F9E70000FC3400202DE9FC4105460C46E6
:107A8000174620880930B84202D90C20BDE8FC8195
:107A900068466DDF064600BF304600B1F6E700BF1E
:107AA0000820218868542088401C20801B202188C1
:107AB00068542088401C208020882844DDF801106C
:107AC0000160BDF8051081802088801D20809DF810
:107AD0000000400818B900202188685402E0012005
:107AE000218868542088401C20800020CEE70000B8
:107AF00070B503F0A9FE044600BF204600B170BD7A
:107B000000BF00BF084D28464FF0030C00DF00BF48
:107B1000044600BF204600B1F1E700BF03F00EFFAE
:107B200004462046EBE70000643F0020014600BF0A
:107B300009B90E20704700BF014801600020F9E735
:107B4000582C002010B54FF0FF3100203DDF0446D7
:107B500000BF204600B110BD00BFB12100203CDFB6
:107B6000044600BF204600B1F5E700BF0448416964
:107B700001208847022005F0BBF90020EBE7000058
:107B8000483F002010B5054800684169002088473B
:107B9000FFF7D8FF0446204610BD0000582C0020F7
:107BA00010B588B0044620216846FEF778FC032013
:107BB000ADF8000020788DF802009DF80D0020F04F
:107BC000200020308DF80D009DF80D0020F00800F9
:107BD00008308DF80D0001208DF810008DF80C0094
:107BE0001720ADF8040001208DF813008DF8120065
:107BF0008DF811006088A21D694601F01FF908B0D8
:107C000010BD000030B585B00546244B0FCB8DE884
:107C10000F0000BF15B90E2005B030BD00BF4FF6F4
:107C2000FF701F4988802868486100200876084650
:107C3000406908B91B4848611948FFF777FF0446B7
:107C400000BF204600B1E7E700BF00BF01208DF86C
:107C500012004FF65960ADF8100000BF104A921C98
:107C600004A90120A8DF044600BF204600B1D3E7E5
:107C700000BF0B49684662DF044600BF204600B1E2
:107C8000CAE700BF0648FFF78BFF044600BF204647
:107C900000B1C1E700BF0020BEE7000000160300EE
:107CA000483F00207397020070B504460D4600BFA0
:107CB00004B970BD00BF2088102806D0112808D054
:107CC00051280AD0532810D10BE0204606F0F8FACC
:107CD0000CE0204606F0FEFB08E0204606F078FDAA
:107CE00004E0204606F0BEFC00E000BF00BF00BF7D
:107CF000DFE7000070B504460426207B012802D08F
:107D0000022822D109E001F035FD05460DB9012612
:107D100002E0112D00D1062619E0607B142801DC59
:107D2000607B08B905260FE0627B04F10E01124862
:107D3000FEF79CFB607B1049091F8861084608F02C
:107D400047F9054605B9012601E0022600BF00BF3C
:107D5000012E0FD0207B314600F058F8054625B1A2
:107D60000648006841690320884704480068416963
:107D70000220884770BD0000743F0020582C00206E
:107D800070B505460E4600BF1E48006820B11D486C
:107D9000406808B1012000E0002000B970BD00BFBC
:107DA000184800F10801426828469047044600BF81
:107DB000082C24D07CB90020134909684876012199
:107DC000022000F023F80446CCB10F480068416956
:107DD0000320884713E000200B49096848760621F4
:107DE000022000F013F8044624B1074800684169F6
:107DF000032088470448006841690220884700BF83
:107E0000CCE70000643F0020582C0020F0B587B07C
:107E100004460D4603270020019002900390049031
:107E20000320069020208DF814008DF815408DF861
:107E300016500E48C088ADF8040002208DF80600E8
:107E40000020ADF8080006A8039005A80490074993
:107E5000888801A9AEDF064626B9BDF818000328B8
:107E600000D00C26304607B0F0BD0000483F00208F
:107E700030B58BB0044634B1012C29D0022C32D05D
:107E8000032C49D13AE02B492B4A891AC90803220D
:107E900042EA014029A104F0D7FD6846FEF7F8FE4A
:107EA00001208DF8000069463048FFF792FC002160
:107EB0002F48FFF7C7FD05461E491F4A891AC90802
:107EC000032242EA01402A462AA104F0C7FD2EE01F
:107ED0001849194A891AC908032242EA01402BA10C
:107EE00004F0B2FD23E01349134A891AC90801229C
:107EF00042EA01402EA104F0A7FD18E00D490E4A08
:107F0000891AC908012242EA014038A104F09CFD07
:107F100000BF002000BF0AE00649074A891AC908C5
:107F2000012242EA01403DA104F08EFD00BF00BFE6
:107F30000BB030BDA42003004C20030044657669DB
:107F4000636520697320707265706172696E672065
:107F5000746F20656E74657220626F6F746C6F61F0
:107F6000646572206D6F64652E000000CC2C0020CB
:107F700005940200446973636F6E6E656374656493
:107F8000202564206C696E6B732E00004465766951
:107F900063652077696C6C20656E74657220626F12
:107FA0006F746C6F61646572206D6F64652E000084
:107FB0005265717565737420746F20656E74657297
:107FC00020626F6F746C6F61646572206D6F6465A1
:107FD000206661696C6564206173796E6368726F95
:107FE0006E656F75736C792E0000000052657175B7
:107FF00065737420746F2073656E642061207265F0
:1080000073706F6E736520746F20636C69656E7436
:10801000206661696C65642E00000000556E6B6E11
:108020006F776E206576656E742066726F6D206264
:108030006C655F6466755F627574746F6E6C657392
:10804000732E0000F8B505460F4600242888212825
:1080500053D006DC10281AD0112809D013287DD15E
:108060005BE03B287ED0522868D05628F7D187E0C5
:108070004FF6FF704B4908804B494C4A891AC90892
:10808000032242EA01404AA104F0DEFC87E04649AF
:10809000464A891AC908032242EA014048A104F06D
:1080A000D3FC072000F07EFB044600BF264626B125
:1080B00000BF3046FEF716FF00BF00BFA888394951
:1080C00008803949394A891AC908032242EA01401D
:1080D00034490A883DA104F0C1FC32480188464871
:1080E00003F02EFB044600BF264626B100BF3046F3
:1080F000FEF7F8FE00BF00BF51E000200090A88806
:1081000069468FDF044600BF264626B100BF3046D1
:10811000FEF7E8FE00BF00BF41E000231A468521BC
:10812000204800887FDF044600BF264626B100BFF6
:108130003046FEF7D7FE00BF00BF00BF00231A463F
:10814000194618480088B1DF044600BF264626B10C
:1081500000BF3046FEF7C6FE00BF01E01EE001E0B2
:1081600000BF1CE0A888132176DF044600BF264626
:1081700026B100BF3046FEF7B5FE00BF00BF0EE0DF
:10818000A888132176DF044600BF264626B100BF2B
:108190003046FEF7A7FE00BF00BF00E000BF00BFF3
:1081A000F8BD0000382B0020A42003004C20030061
:1081B000446973636F6E6E65637465642E000000BE
:1081C000436F6E6E65637465642E0000424C455FBC
:1081D0004741505F4556545F434F4E4E45435445CB
:1081E00044206D5F636F6E6E5F68616E646C6520C6
:1081F0003A20256400000000C02C002070B5044621
:108200000D462088102806D0112808D012280ED03C
:10821000502810D107E0204605F0B0FF0CE02046C2
:1082200006F03EF908E0204606F05AFB04E020463E
:1082300005F08CFF00E000BF00BF70BD2DE9F041EC
:1082400004460F46A6882088102806D0112817D08B
:1082500019283DD01A2848D116E007F06DFA3046AB
:1082600007F0EEF820B900BF0420FEF73BFE06E061
:10827000E07B022803D131461D4803F0C0F834E00A
:10828000304607F07DFA30E0207A0509042D01DB45
:10829000012000E000200246314615480C3001F074
:1082A00031FE032D01DB012000E0002002463146B3
:1082B0000F48083001F026FE022D01DB012000E00E
:1082C0000020024631460A48001D01F01BFE0CE06A
:1082D000207A48B9607AC0F3C0052A46314604487E
:1082E0000C3001F00FFE00BF00BF00BFBDE8F08101
:1082F0000435002070B50446204608F099FC054678
:10830000C5F3400070BD70B50446204608F090FCEF
:10831000054605F0010070BD38B505F045F8044686
:1083200000BF254625B100BF2846FEF7DBFD00BF94
:1083300000BF002000906946012004F053FE04466F
:1083400000BF254625B100BF2846FEF7CBFD00BF84
:1083500000BF684604F016FF044600BF254625B15D
:1083600000BF2846FEF7BEFD00BF00BF38BD2DE9A7
:10837000F04186B00446884617461D4600BF1CB92A
:108380000E2006B0BDE8F08100BF01AA2946606951
:10839000FFF76AF8064600BF304600B1F1E700BFBC
:1083A0004FF6FF70854201D0019808B90520E8E733
:1083B0000198007808B90820E3E73888F42801DD3F
:1083C0000720DEE700200290039004900590A0882B
:1083D000ADF80800CDF81480049701208DF80A004C
:1083E00002A92846AEDFCCE770B58EB004460E4633
:1083F0003F4B0FCB09AD0FC500BF14B90E200EB017
:1084000070BD00BF00BF0EB90E20F8E700BF306896
:10841000A061214609A862DF054600BF284600B1D9
:10842000EDE700BF20788DF836000A20ADF8340063
:10843000A21C0DA90120A8DF054600BF284600B1F7
:10844000DDE700BF202101A8FEF729F80C20ADF8D8
:10845000040020788DF80600F420ADF80800012013
:10846000ADF80A008DF810009DF8110020F008000A
:1084700008308DF811009DF8110020F00400001D57
:108480008DF8110001208DF815008DF81600608818
:1084900004F10C0201A900F0D1FC05460DB12846FB
:1084A000ADE7202101A8FDF7FAFF0B20ADF804008D
:1084B00020788DF80600F420ADF808000120ADF812
:1084C0000A008DF810009DF8110020F01000103007
:1084D0008DF8110001208DF815008DF816008DF82B
:1084E00017006088221D01A900F0A8FC87E70000A2
:1084F000B812030070B504460D4605B104B970BD4D
:108500002E462088102804D0502807D057280FD195
:1085100009E02146304605F069FE0AE02146304672
:1085200006F00AFA05E02146304606F0B1F800E010
:1085300000BF00BF00BFE2E77CB500240DE00848A3
:10854000055D032600200090334602460146019057
:10855000284603F0D5FE00BF641C042CEFD37CBD7D
:108560007012030010B5044604F0010008B100F0D9
:108570004BF804F0020008B1FFF7DEFF10BD000069
:1085800010B502460949885C00BF4FF0A04421465F
:10859000D1F80435012484409C43C1F808450124E6
:1085A00084401C40C1F80C4500BF10BD6C12030094
:1085B00010B504460249085D012103F08AFF10BD91
:1085C0006C12030010B504460249085D002103F057
:1085D00080FF10BD6C12030010B50146094B585CBA
:1085E00000BF4FF0A044234600BFD3F80445C44069
:1085F00004F001040CB1012000E00020024682F0EA
:10860000010010BD6C1203007CB500240CE0094889
:10861000055D002000900346012211460190284686
:1086200003F06EFE00BF641C042CF0D300F004F8CD
:108630007CBD00006C12030010B5002403E020464E
:10864000FFF7B6FF641C042CF9D310BD10B500244D
:1086500003E02046FFF7B6FF641C042CF9D310BDDD
:1086600002464FF0FF30002106E0054B5B5C934271
:1086700001D1084602E0491C0429F6D300BF704727
:10868000701203002DE9F04106460F464FF0000836
:1086900000243046FFF7E4FF0446042C3ED20FB31B
:1086A000012F02D0022F38D130E004EB44002149E1
:1086B00011F8008004EB44000844407850B11E4A91
:1086C0004FF480411D480068FEF7ECFC05460DB9EB
:1086D0001948067004EB440016490844807818498C
:1086E00008551AE015480068FEF7F7FC1448005DCD
:1086F00004EB44010F4A11448978884205D104EB08
:1087000044001146084490F8028006E004EB44005F
:108710000849084490F8018000BF00BFB8F1000F7D
:1087200006D00848006818B14046064909688847DD
:10873000BDE8F081783400205C2B00207C1203001F
:108740005D2B0020582B002030B503460020042B61
:1087500023D2012A07D1012903D103F10E04E4B287
:1087600000E00024224679B1012902D0022911D16A
:1087700004E003EB43040A4D2A550DE003EB4304E8
:10878000074D2C44627007E003EB4304044D2C4476
:10879000A27001E0072000BF00E0072030BD00000C
:1087A0007834002070B5044600250548007800F0B4
:1087B000010018B1204600F05BF80546284670BD60
:1087C000502B00202DE9F04105460F4600241F489C
:1087D00005601F48076005F0020000B3002606E0B0
:1087E000012211463046FFF7AFFF0446761C042EE7
:1087F00001D2002CF4D034B940F2333204211548B0
:10880000FEF7BAFA044614B9FEF7A0FA04462CB9EA
:10881000114A00211148FEF7FFFB044600BF05F096
:10882000010080B10120FFF79DFE2CB90C4A002108
:108830000C48FEF7F1FB04462CB90B4A01210B480A
:10884000FEF7EAFB04462046BDE8F081502B0020ED
:10885000582B002080120300518D02007C1203006F
:1088600065AA020074120300416D02007812030031
:108870002DE9F047044600260025DA48007820B1AB
:108880000020D849087002F0D9F8182C7ED2DFE811
:1088900004F00C16174A7EB2F6F4F3F2F1F0EFEEA4
:1088A000EDECEBEAE9E8E7E6E5E402F0C7F8CE48EC
:1088B0000068FEF712FC0646CC4804708DE100BF4C
:1088C0000020FFF789FE58B10020FFF771FE022C4F
:1088D00002D14FF4E16001E04FF47A60054609E00F
:1088E0000020FFF76FFE022C01D1C82001E04FF4F9
:1088F000C8700546BD4804704FF40040A5FB001049
:108900004FF47A73CF1840F100015A000023384623
:10891000FDF768FD814600224946B3480068FEF72E
:10892000C1FB064659E10020FFF756FE58B1002072
:10893000FFF73EFE032C02D14FF4487001E04FF4E4
:108940007A60054609E00020FFF73CFE032C01D1C8
:10895000C82001E04FF4C8700546A44804704FF4E5
:108960000040A5FB00104FF47A728F1840F100010F
:10897000520000233846FDF735FD81460022494666
:1089800099480068FEF78EFB064626E124E10020A8
:10899000FFF722FE58B10020FFF70AFE042C02D197
:1089A0004FF47A6001E04FF47A6005460AE0002057
:1089B000FFF708FE042C02D14FF4C87001E04FF419
:1089C000C8700546894804704FF40040A5FB0010AC
:1089D0004FF47A73CF1840F100015A000023384653
:1089E000FDF700FD8146002249467F480068FEF7FA
:1089F00059FB0646F1E00020FFF7EEFD50B10020E4
:108A0000FFF7D6FD052C01D1C82001E04FF47A60B4
:108A1000054609E00020FFF7D5FD052C01D1C8204F
:108A200001E04FF4C8700546704804704FF40040F0
:108A3000A5FB00204FF47A73D71840F100015A00CB
:108A400000233846FDF7CEFC8146002249466648A1
:108A50000068FEF727FB0646BFE0B8E0B6E0AAE0F4
:108A6000A1E098E092E05FE05DE05BE059E057E074
:108A700051E042E033E024E015E00EE0FFE70020A3
:108A8000FFF77EFD59480470002240F266615648A7
:108A90000068FEF707FB06469FE00020FFF792FD07
:108AA0005248047099E001204E490870FFF768FDB4
:108AB000002240F266614C480068FEF7F3FA064671
:108AC0008BE0012047490870FFF75AFD00224FF460
:108AD000005145480068FEF7E5FA06467DE00120B2
:108AE00040490870FFF74CFD002240F266613E48A5
:108AF0000068FEF7D7FA06466FE001203949087092
:108B0000FFF73EFD00224FF4005137480068FEF7A2
:108B1000C9FA064661E0FFF799FD344804705CE04D
:108B200000BF00BF00BF00BF31480068FEF7D5FAA4
:108B30000646C4F1110515B30EBB012D18D9A8B214
:108B4000C82148434FF4004180FB01104FF47A7272
:108B50008F1840F10001520000233846FDF742FC17
:108B600081460022494622480068FEF79BFA0646E5
:108B70000220FFF727FD01201E49087005E00220B2
:108B8000FFF716FD00201B49087026E001F056FF94
:108B90001648047021E001F051FF0020FFF712FD9C
:108BA0001248047019E001F049FF0120FFF70AFDA7
:108BB0000E48047011E001F041FF0020FFF702FDB4
:108BC0000120FFF7FFFC0948047006E000BFFFF733
:108BD0003DFD0648047000E000BF00BF3046BDE820
:108BE000F08700004D2B0020741203004C2B002056
:108BF00078120300542B00202DE9FC4704460D4653
:108C00001646A71C4FF001080020019001A8FEF7AE
:108C10003DFB3048406828602E4840682D498968EF
:108C2000411A2D480068401CA0EB010915E0012104
:108C30002A4802F008FC01F04FFF824651462748BF
:108C400002F001FC2348406822498968411A224801
:108C50000068401CA0EB010900BF4F45E7D8B8F100
:108C6000000F30D00021009176B1009921F003016E
:108C7000491C0091009921F00401091D00910099FF
:108C800064F3891100910DE0009921F00301891C22
:108C90000091009921F00401091D0091009964F3ED
:108CA0009F5100910B4949680B4A12681140094ACB
:108CB0000C3202EB81000099016006494968394491
:108CC0000C3A516000BF9DF80400FEF7E5FA4046FB
:108CD000BDE8FC87A0380020102C0020BC3C002000
:108CE00070B504460D460A2D03D10D212046FFF72D
:108CF000F7FFA168481CA06020684554D4E9011022
:108D0000884202D3204602F04AFF70BD04488068C2
:108D100003494968884201D1012070470020FCE7DF
:108D2000A03800200246002108E0074B1B6803EB37
:108D3000C1000378934200D17047491C0348007872
:108D40008142F2DB0020F7E7882B00208C2B0020EB
:108D500010B5044620780221FFF794FC10BD0000F6
:108D600070B504460D46032C06D1A92003490860BE
:108D700000BF002004F0BCF870BD000020050040DA
:108D80004FF0FF31054A42F82010082804DBFF238A
:108D9000A0F108015032535470470000883500207C
:108DA0000146024850F82100704700008835002035
:108DB0002DE9F04F03460C464FF0FF390AB1002071
:108DC00000E0082084460AB1082000E00C2080461C
:108DD000614624E0154850F82100401CF0B91D46BA
:108DE0000846274616464FFA80FBDFF840A00AF1F6
:108DF000300A0AF805B0DFF834A04AF820704EB9FE
:108E00004FFA85FBA0F1080ADFF820E00EF1500EC2
:108E10000EF80AB000BF4FFA81F902E0491C414543
:108E2000D8D300BF4846BDE8F08F00008835002049
:108E30000146014840567047B835002070B590B0E3
:108E400006460C461546A07818B901208DF80E008C
:108E500002E0A0788DF80E002088ADF80C0000200C
:108E60000290607C02A907F0E3F8A07C0DF10901F3
:108E700007F0DEF8E07B08B1012000E000209DF85B
:108E80000A1060F3C3018DF80A10207C08B101209C
:108E900000E000209DF80A1060F304118DF80A101C
:108EA000207B08B1012000E000209DF80A1060F34B
:108EB00000018DF80A10207D08B1022000E0012099
:108EC0009DF80A1060F342018DF80A101C2109A8D0
:108ED000FDF7E5FA607BC0F3001018B9607BC0F3C2
:108EE0004010F8B100200090E07C0DF1010107F086
:108EF0009FF800BF9DF8000020F00F00401C8DF887
:108F000000009DF8000020F0F00010308DF8000007
:108F100000BF9DF8020020F00600801C8DF80200C2
:108F2000CDF838D0607B8DF82400A07B8DF825002B
:108F3000142104A8FDF7B3FA03A8049002A8059031
:108F4000A088ADF81C00A06820B1E088ADF818003A
:108F5000A0680890A069002849D000200190A0696D
:108F60000088ADF82C00A0694088ADF82E00A069FB
:108F700040680A9001A80D90A169087B01A907F03B
:108F800057F8A169487B0DF1050107F051F8A06978
:108F9000807A08B1012000E000209DF8061060F3FF
:108FA000C3018DF80610A069C07A08B1012000E065
:108FB00000209DF8061060F304118DF80610A069DA
:108FC000007A08B1012000E000209DF8061060F34F
:108FD00000018DF80610A069807B08B1022000E036
:108FE00001209DF8061060F342018DF80610E0693B
:108FF00008B1E0690C902B4604AA09A93046AADF03
:1090000010B070BD70B505460DB9094C01E0084CB3
:10901000083409E0204601F0E8FC064606B904E001
:1090200028467168884700BFF4E700BF70BD0000A4
:109030007C35002010B504462CB901200649487043
:109040000020FFF7DFFF012C04D1012002498870C6
:10905000FFF7D8FF10BD0000743500202DE9F04760
:10906000024613468C46D3E90245DCE90267B6EBBB
:10907000040877EB050002D30120BDE8F08700204B
:10908000FBE701468878012805D191F820000128E6
:1090900001D100207047886A042802D0486A042859
:1090A00001D10020F6E70120F4E733B58BB0054687
:1090B000002000900C9878B100240BE021460CA809
:1090C00002F08EF928B1009A501C009001A820F8F7
:1090D0001240641C142CF1D32C2269462846FDF75B
:1090E000C5F90DB030BD01460888062808DB0888A0
:1090F000B0F5486F06DD08884FF6FF72904201D048
:10910000072070474888062808DB4888B0F5486F74
:1091100006DD48884FF6FF72904201D00720F0E745
:1091200008884FF6FF72904208D04888904205D0D8
:1091300008884A88904201DD0720E2E70020E0E746
:109140002DE9F04107460D46144698462088801DBB
:10915000404502D90C20BDE8F0813846FFF7C3FF37
:10916000064600BF304600B1F5E700BF0520218864
:1091700068542088401C2080122021886854208850
:10918000401C208022885119388807F057FD21881B
:109190000844208022885119788807F04FFD2188E3
:1091A000084420800020D6E710B5044600BF2046C2
:1091B000FDF798FE00BF10BD30B587B01C21684692
:1091C000FDF76DF9002000904FF4A03001904FF4AE
:1091D000F020029003208DF80C000020ADF80E0066
:1091E0008DF8100009480590094806906846FEF77A
:1091F000D1FB044600BF254625B100BF2846FDF738
:1092000071FE00BF00BF07B030BD000021E10200C9
:10921000A9910200F8B505460C46607A88B9207A13
:1092200010B91048476801E00E4887682A46394659
:109230006068FDF737FF064616B1304606F056FD6A
:109240000EE0002020720748406948B101208DF8E7
:109250000000ADF80250034841696846884700BFE6
:10926000F8BD0000DC3400202DE9FF4105460C4626
:10927000002002900390ADF80840ADF80A4000903D
:1092800001906A4602A9284690DF0646002E32D099
:10929000304604F0B9F9074619491A4A891AC9082B
:1092A000012242EA01403B462A46174903F0E2FB0D
:1092B000BDF8000010B9BDF8020068B1BDF8023079
:1092C000BDF800200E490F4FC91BC908012747EA06
:1092D00001400EA103F0CEFBBDF8040058B1BDF86B
:1092E00004200749074BC91AC908012343EA014072
:1092F000164903F0B3FB304604B0BDE8F08100002E
:109300004C2003004C2003008417030054686520A0
:109310007265717565737465642054582F525820B6
:109320007061636B6574206C656E67746820697327
:1093300020746F6F206C6F6E672062792025752F07
:109340002575206F63746574732E0000D0170300B9
:1093500070B506460D4616B14FF4064070BD28792B
:1093600020B1012809D0022815D111E0022028716E
:10937000284606F0C3F8044610E0284600F0A8FD91
:10938000044648F20960844201D141F61D5405E0CB
:1093900041F61D5402E048F20E6400BF00BF2046B3
:1093A000DCE700002DE9F0418046002414E012487B
:1093B000006800EBC405287804F0C6FA0746687810
:1093C000012800D100E00020784080F001062878D4
:1093D000314600F0C7FA641C084800788442E6DB96
:1093E0000748D0E90010002359405840014301D0FC
:1093F00007F0A4F8BDE8F081882B00208C2B00201A
:10940000982B002070B504460E461321204676DFC7
:1094100005465DB10649074A891AC908022242EA8F
:1094200001402B462246044903F024FB70BD000096
:10943000A42003004C2003004017030010B50021B6
:10944000034802F037F8044684F3100010BD000012
:10945000BC3C002070B505460C464FF4803000FA45
:1094600004F1284600F064FA70BD70B505460C465C
:109470004FF4A07000EB840086B23146284600F01D
:10948000E9FA70BD2DE9F04704460D4616461F4621
:109490004FF4803000FA05F84FF4A07000EB85001F
:1094A0001FFA80F926F07F464146206803F084FDCC
:1094B0004146206803F07AFD4946206803F06FFDBD
:1094C00032462946206803F061FD4146206803F0DA
:1094D00070FD1FB14146206803F071FDBDE8F087C3
:1094E00010B50446206803F056FD10BD2DE9F04785
:1094F00004460D4617466079324941F8207060797C
:10950000314901EBC000007968B108262F49304A83
:10951000891AC908022242EA01402EA103F094FAF6
:109520003046BDE8F08729882068C0F8081500BFDC
:1095300094F90420AB7810461946002808DB4FEA5E
:10954000417C4FEA1C68DFF8B0C00CF800800BE0EB
:109550004FEA417C4FEA1C69DFF8A0C000F00F0819
:10956000A8F104080CF8089000BF00BF94F904109B
:10957000084600280DDB00BF00BF00F01F030122DA
:109580009A4043099B0003F1E023C3F8002100BF88
:1095900000BF00BF00BF012061790B4A02EBC1018F
:1095A00008716079114641F8304000260749084AA1
:1095B000891AC908032242EA014011A103F044FAC2
:1095C0003046AEE7D02B0020D42B00208C200300A7
:1095D0004C20030052544320696E7374616E6365BE
:1095E00020616C726561647920696E697469616C6F
:1095F000697A65642E00000000E400E018ED00E0E8
:109600005254433A20696E697469616C697A656481
:109610002E00000010B5014691F90400002807DB78
:1096200000F01F0301229A40024B440943F8242012
:1096300000BF10BD00E200E070B505460C462246B2
:109640000221284600F080F970BD10B504464FF4A1
:109650008271204600F0FEF910BD10B504460021CD
:10966000206803F0AFFC10BD10B50446042120684B
:1096700003F0A8FC10BD2DE9F84F044688461546B6
:1096800099464FF4803000FA08FA4FF4A07000EBCE
:1096900088001FFA80FB25F07F455146204600F0E8
:1096A00047F9206803F077FC06464146206803F03E
:1096B00067FC009032464146206803F067FC59463B
:1096C000206803F06CFC3146009806F091FE0128FA
:1096D00006D1102004F04CF85946206803F05FFCD6
:1096E000206803F058FC06463146284606F080FE06
:1096F00007465146206803F05CFC012F0FD16A1C1D
:109700004146206803F042FC102004F031F8206844
:1097100003F041FCB04225D00D20BDE8F88F2A4669
:109720004146206803F032FC206803F034FC064612
:10973000681E314606F05CFE07466FF07F40A0EBE6
:109740000900B84201D20D20E7E75FB96A1C414623
:10975000206803F01BFC206803F01DFCB04201D020
:109760000D20DAE701225146204600F0EDF80020F6
:10977000D3E7704710B510480068407E60B10621FD
:109780000120FEF743FB044624B10B480068416901
:1097900003208847002010BD01200749096808768A
:1097A00001210846FEF732FB04461CB100200249A5
:1097B000096808762046EEE7582C00202DE9F8438A
:1097C00005460E461746984669461048006801F05F
:1097D000C0FD044614B90420BDE8F8831C212046CE
:1097E000FCF75DFE012020712560C4F80880084860
:1097F0000068B6FBF0F0E060676169460348006806
:1098000001F0D1FD05F008FD0020E5E71C1603007E
:109810001016030010B50446D4E90321501828DFC0
:1098200010BD0278072A38D2DFE802F037040712A9
:10983000222B340000220A7030E001220A700389D2
:109840008B818388CB81C2688A6000230B7425E0FA
:1098500002220A7003898B818388CB81C2688A6067
:10986000827D062A01D1012300E000230B7415E05C
:1098700003220A70C3888B810389CB81C2688A6006
:109880000CE004220A70C3888B810023CB81002264
:109890008A6003E005220A7000E000BF00BF704745
:1098A00030B587B004460D462068806808B907B017
:1098B00030BD182101A8FCF7F2FD0295A0680690C2
:1098C000207910B1012815D109E001208DF804009C
:1098D00020690390E0680490606905900BE0022025
:1098E0008DF804000749E0680968484303906069FF
:1098F000059000E000BF00BF2068816801A888478C
:1099000000BFD4E71016030070B50546002409E037
:10991000064850F8240020B1044850F82410284686
:109920008847641C042CF3D370BD00003C40002029
:1099300070B504460D462946206803F037FB2946DA
:10994000206803F039FB70BD70B504460E4615461D
:109950003146206803F02DFB1DB13146206803F02D
:109960002EFB70BDF8B505460C46284606F068FC8F
:1099700005286AD2DFE800F003212A393F00DCB174
:109980000121284606F06CFC002000906846FDF797
:109990007DFC2A460126002730463946FCF753FD58
:1099A0002B4AD2E9003218431143294A03C29DF8D9
:1099B0000000FDF771FC00BF47E00CB1022000E0A1
:1099C00000200146284606F04BFC3EE044B103214E
:1099D000284606F045FC0121284607F002FA03E07C
:1099E0000121284606F03CFC2FE01CB90421284642
:1099F00006F036FC29E024B10321284606F030FCAD
:109A000022E00021284606F02BFC0021284607F022
:109A1000E8F9002000906846FDF738FC2A46012648
:109A2000002730463946FCF70EFD0A46C143D043B5
:109A3000074B0CCB11401840054AC2E900109DF8B5
:109A40000000FDF729FC00BF00BF00BFF8BD00000B
:109A5000982B002070B505460C462868015929B19D
:109A60002146286803F09BFA012070BD0020FCE726
:109A700010B504462078062863D2DFE800F0030919
:109A80005631625C606810B901202F49087059E0B6
:109A90006068002823D101202C4908702C492D4BE7
:109AA000C91AC908032343EA01402BA1A26802F0A6
:109AB000D5FFA2892649274BC91AC908032343EABF
:109AC00001402AA102F0CAFFE2892149214BC91AAB
:109AD000C908032343EA014029A102F0BFFF31E096
:109AE0006068002820D11A491A4BC91AC9080323F3
:109AF00043EA014027A1A26802F0B0FFA2891449FD
:109B0000144BC91AC908032343EA014026A102F0F5
:109B1000A5FFE2890E490F4BC91AC908032343EA7E
:109B2000014026A102F09AFF0CE0606810B9012004
:109B30002749087006E0606810B9012025490870BF
:109B400000E000BF00BF10BD3C2B00203E2B0020DA
:109B5000A42003004C2003005265636F726431201F
:109B600049443A09307825303478000046696C65FC
:109B7000312049443A09307825303478000000001B
:109B80005265636F726431206B65793A09307825CC
:109B9000303478005265636F7264322049443A0968
:109BA000307825303478000046696C6532204944AD
:109BB0003A09307825303478000000005265636F30
:109BC000726432206B65793A093078253034780038
:109BD0003D2B0020402B002070B586B0142101A839
:109BE000FCF75DFC2E48007828B101A8FFF78CFE39
:109BF000002006B070BD2A48001D01F01DFC08B110
:109C00000020F6E700F0E8F906460EB13046F0E72E
:109C100005F02AFA04F0E6FF054625B1022D03D02F
:109C2000062D0ED103E000BF48F20A60E1E70120F3
:109C30001B4908700020486001A8FFF765FE00205E
:109C4000D7E700BF00BF684605F0D2F9044614B953
:109C500048F20760CDE7012020700C2D16D2DFE816
:109C600005F01506150715111512150A0E0B00BF84
:109C7000002020710BE000BF0320207107E00220CC
:109C8000207104E000BF0120207100E000BF00BF90
:109C9000684605F0BDF905F0CDFA0020A9E70000FF
:109CA000642C002038B5044614B948F2046038BD6D
:109CB0006946204605F040FC08B3BDF8000000EB03
:109CC0008000114901EB8000C068A8B1A07A98B16A
:109CD000BDF8000000EB800001EB8000C068401E72
:109CE000BDF8001001EB8101074A02EB8101C86059
:109CF0000020A072002504E048F2056501E048F26A
:109D000009652846D3E70000E84000207FB51446E7
:109D10001D462B46224601A9684605F0A5FB04B066
:109D200070BD0000F8B504460D4604B115B948F2FF
:109D30000460F8BD6946204605F0FEFBA0B16668E8
:109D4000BDF8001001EB8101094A02EB810101F12C
:109D50000C00012101F077FB2E6060680C30686018
:109D60000120A0720020E4E748F20960E1E700006A
:109D7000E840002070B504460D4602230022294623
:109D8000204607F00DF970BD70B50546094800681A
:109D9000042802D148F20B6409E007480549096824
:109DA00040F821500121034801F04DFB00242046DA
:109DB00070BD0000702C00203C4000202DE9F843CD
:109DC00004464FF4806800262B48007818B948F202
:109DD0000160BDE8F88314B948F20460F9E7122184
:109DE0002046FCF75CFB0320208000253FE005EBCC
:109DF0008500224901EB8000008905EB85011F4A9F
:109E000002EB81014989084487B205EB850102EB29
:109E10008101486804F062FE032802D12088401EB8
:109E20002080608805EB8501144A02EB8101C96836
:109E300008446080208905EB850102EB8101498996
:109E400008442081608938446081C7F5806086B20B
:109E5000A089B04200DAA68104F11000831EA21D81
:109E6000211D0090284605F0ADFC681C85B2022D2E
:109E7000BDDB0020ADE70000642C0020E84000209E
:109E800070B504460D462A460021204600F00EF823
:109E9000A068401CA06070BD01468A68C868801A2E
:109EA000704701468A68C868801A704710B5836891
:109EB0000B44848823400468E35C137010BDC268BF
:109EC00083881A4003689954C268521CC260704764
:109ED0003EB504460A4B6A460021A01D05F0C4FAAF
:109EE000054635B9064A9188019805F09FFB05465D
:109EF00003E0034800210160416028463EBD0000A8
:109F0000802C002070B505460E46144624B131461B
:109F1000284601F074FA03E03146284601F051FA70
:109F200070BD30B504461088C01C984201D90C2081
:109F300030BD0220158848551088401C1080012033
:109F4000158848551088401C108015884C5510887D
:109F5000401C10800020EBE770B504460D4640F22F
:109F60001442115B0122D4F81004FDF769FB064688
:109F700006B1357004F13C0204F5826104F154002D
:109F800072DF70BD10B54FF4405400F009F803497A
:109F9000086108460069001BC86010BD982C0020AD
:109FA00010B540F6F8700068401C18B94FF010204A
:109FB000406902E040F6F870006803464FF08050B8
:109FC00001694269581C08B1184601E002FB01F022
:109FD0000446204610BD000010B5FFF7D3FF002255
:109FE0000249034801F09AFF10BD0000201603004B
:109FF000982C0020F7B50D4617460DB90020FEBD80
:10A000000026009868B1002409E02146684601F066
:10A01000E7F918B1A0B23946A847761C641C142C85
:10A02000F3D33046EBE710B50446606805F092F8CC
:10A0300010BD00003EB500BF9DF8000020F00F00ED
:10A04000401C00909DF8000020F0F00010300090BF
:10A0500000BF0B2214A168467CDF044600BF2546E2
:10A0600025B100BF2846FCF73DFF00BF00BF002020
:10A07000019002905020ADF80400A020ADF8060039
:10A080000020ADF808004FF4C870ADF80A0001A830
:10A090007ADF044600BF254625B100BF2846FCF7FD
:10A0A00021FF00BF00BF3EBD46595A5F4446555F81
:10A0B000424C450070B505460C4660880D4909883C
:10A0C000884215D1208840F67721884210D1A08897
:10A0D000C01E094908800949094A891AC90803228A
:10A0E00042EA014004490B880A8806A102F0C2FC3A
:10A0F00070BD0000382B0020342B0020A42003006A
:10A100004C20030044617461206C656E20697320EB
:10A1100073657420746F20307825582825642900D1
:10A1200070B50E490E4801F06DFA044600BF254691
:10A1300025B100BF2846FCF7D5FE00BF00BFF721C0
:10A14000074801F050FA044600BF254625B100BF7C
:10A150002846FCF7C7FE00BF00BF70BDB5A00200D7
:10A16000AC2C002070B5054615B14FF4064070BD0B
:10A170001848007B18B100201649087301E000F070
:10A18000DFF81448007808281DD2DFE800F01C042E
:10A19000080C101C141800F03FF8044616E000F0FC
:10A1A000BDF8044612E000F099F804460EE000F015
:10A1B00047F804460AE000F035F9044606E000F0EE
:10A1C00043F9044602E048F20E6400BF00BF204697
:10A1D000CDE70000104100200D480089401C0C49CB
:10A1E000088100204880087300BF0DE000EB80016B
:10A1F000084A12F8211009B9012200E0002204499E
:10A200000A310A54411C88B20228EFDB7047000073
:10A2100010410020E840002010B5084800F036F852
:10A2200040B900200549891E08704880486041F601
:10A230001D5010BD00F072F8FBE700001241002035
:10A2400070B50F48458805EB85000E4901EB80008D
:10A25000C06878B904200A49087005EB8500094AEE
:10A2600002EB8000002301224168074801F09EFDB7
:10A27000044602E000F090F80446204670BD00005D
:10A2800010410020E8400020982C002010B5014625
:10A290000022002018E00F4B1B5C9BB100240D4BEB
:10A2A0001C5400EB80030C4C04EB8303DB684BB9BC
:10A2B00000EB800304EB83031B7C012B02D108809D
:10A2C000012203E0431C98B20228E4DB00BF1046E1
:10A2D00010BD00001A410020E8400020F8B50C48ED
:10A2E00044680C4800680B49898800EB8105608848
:10A2F000C01C86B20320064908700020B3000090FD
:10A30000084629464268044801F0C8FEF8BD00002E
:10A3100010410020782C0020982C002010B507490F
:10A320004888091D05F046F918B1FFF7D7FF044624
:10A3300002E0FFF785FF0446204610BD10410020D3
:10A3400010B514480078082820D2DFE800F0041F78
:10A350001F0A1016171BFFF73FFF01200D49087059
:10A3600015E000F07DF802200A4908700FE000F0C7
:10A3700029F806200749087009E000BF07200549B1
:10A38000087004E001200349087000E000BF00BF2E
:10A3900010BD00001041002010B5052006490870CE
:10A3A00002200649888008460023012201680448EB
:10A3B00001F0FCFC10BD000010410020782C0020B2
:10A3C000982C0020144908681449498801EB810140
:10A3D000134A02EB810149680F4A11600F4949880D
:10A3E00001EB81010E4A02EB810148600A4989882C
:10A3F0000A4A528802EB8202094B03EB8202118166
:10A400000221054A91800021044A528802EB82020F
:10A4100003EB820211747047782C00201041002059
:10A42000E840002010B5062005490870498801EB76
:10A430008101044A02EB8101486804F0B1FB10BDC0
:10A4400010410020E840002010B5072003490870A3
:10A450000020486004F0B4FB10BD00001041002053
:10A46000054A50684288D21C91B2044A92880A4434
:10A47000024B9A807047000010410020782C002089
:10A4800070B50B48FFF72CF80A4B0CCB841843F13E
:10A490000005094903C9201A75EB010004D24FF0E9
:10A4A0008073E41845F100052046294670BD000080
:10A4B000A02B0020B02B0020B82B00202DE9F0416C
:10A4C00004468846E0B2FEF72DFC0546287803F0E6
:10A4D0003BFA07466878012800D100E00020784068
:10A4E00080F001064EB10648D0E900100023594023
:10A4F0005840014301D106F021F8BDE8F081000089
:10A50000982B002070B504460D46204600F01DF83B
:10A51000A84201D9022070BDA0884FF6FF71884281
:10A5200004D0208810B1A068401C08B90120F2E7CF
:10A530000020F0E7024613468B4204D21868401C04
:10A5400008B1012070470020FCE701464A8801F16C
:10A550000C0000EB8200704710B502F0E7F808B974
:10A5600002F090FC10BD000070B504460D4609488D
:10A570006060094800F060FF50B902F06FFF0649C3
:10A5800008741C238C2205490548006800F0CDFEA4
:10A59000002070BD10160300284000208C3F0020D2
:10A5A0001C1603002DE9F04106460C4648F20E67E2
:10A5B00036B10020434948604FF40640BDE8F081C1
:10A5C000207930B101280AD0022835D003286DD176
:10A5D00040E00120207104F0F3FA074667E04FF0F5
:10A5E0000008002519E005EB8500374911F8200027
:10A5F000022810D1002005EB8501334A02F8210022
:10A600004FF0010805EB850102EB8101486804F079
:10A61000C7FA074603E0681C85B2022DE3DB00BFE2
:10A62000B8F1000F07D101202649087000204860CA
:10A6300041F61D50C2E73AE0002020710220234974
:10A6400088800846002301220168214801F0AEFB02
:10A6500007462CE0002020711C49086804F0A0FA8D
:10A6600007461C4845881948D0F8008005EB85004E
:10A67000154901EB800040681449086005EB85002E
:10A68000114901EB8000C0F804801048808805EB78
:10A6900085010D4A02EB8101088102200B49888067
:10A6A000002005EB850102F8210000E000BF00BF9B
:10A6B0002FB100200349486048F20D607EE700207A
:10A6C0007CE70000642C0020E8400020782C00206B
:10A6D000982C002010410020024600210CE001EBE4
:10A6E0008100074B33F82000904204D101EB810038
:10A6F00003EB80007047491C0029F0D00020F9E7E7
:10A70000C83400202DE9FC5F83460E4691461F4663
:10A71000DDE90C45002E01DA704200E03046824649
:10A720004FF0010803E09AFBF9FA08F10108CA4565
:10A73000F9DA474500D9B84634B1002E03DB05F0FD
:10A740000400042800D1641E05F0020000B167B1C6
:10A7500005F0010048B944B104E0641E20215846C8
:10A76000FEF7BEFA0CB1A045F7D3002E05DA76420B
:10A770002D215846FEF7B4FA07E005F0040004283E
:10A7800003D12B215846FEF7ABFA05F00200022850
:10A790000DD105F0010050B94FB944B104E0641E79
:10A7A00030215846FEF79CFA0CB1A045F7D33B4642
:10A7B0004A4631465846CDE9004506F057FABDE80D
:10A7C000FC9F00002DE9F04104460E464FF48E71C7
:10A7D000206802F034FF4FF4A271206802F02FFFCE
:10A7E0001A49206802F03AFF206802F0D5FF0546BA
:10A7F000374628463946002804DB4A07130E144A18
:10A80000135408E04A074FEA126C124A00F00F0393
:10A810001B1F02F803C000BF00BF206802F0BCFF8E
:10A820000546284600280DDB00BF00BF00F01F02D0
:10A83000012191404209920002F1E022C2F8001188
:10A8400000BF00BF00BF00BFBDE8F0818000020074
:10A8500000E400E018ED00E02DE9F04104460E466A
:10A860004FF48871206802F01AFF4FF4907120684D
:10A8700002F015FF4FF49271206802F010FF4FF4C0
:10A88000A271206802F00BFF4FF4AC71206802F057
:10A8900006FF1B49206802F012FF206802F080FFCB
:10A8A0000546374628463946002804DB4A07130E7A
:10A8B000144A135408E04A074FEA126C124A00F097
:10A8C0000F031B1F02F803C000BF00BF206802F087
:10A8D00067FF0546284600280DDB00BF00BF00F0DB
:10A8E0001F02012191404209920002F1E022C2F8C8
:10A8F000001100BF00BF00BF00BFBDE8F081000035
:10A900001003420000E400E018ED00E030B502461C
:10A9100000201378C3F38003D3B1137803F003034B
:10A92000012B02D0022B10D107E01388C3F383134D
:10A930009B1C0C6823440B6008E00B68022514681C
:10A9400005EB945423440B6000E000BF00BF0120DE
:10A9500030BD000001460348007A08B1012070476D
:10A960000020FCE7284000202DE9F0410446A088A3
:10A9700000EB020CB4F80480904501DD104600E0C5
:10A98000A088A8EB0005E088C618B4F806809845B2
:10A9900001DD184600E0E088A8EB00074888B4F81D
:10A9A0000080404504DB4888B4F80280404502DD61
:10A9B0000020BDE8F0818888A84202D388886045DD
:10A9C00001D90020F5E7C888B84202D3C888B04250
:10A9D00001D90020EDE70120EBE7014601F003007B
:10A9E00008B9012070470020FCE70146086808B15B
:10A9F00002680A60704710B5044622460121002013
:10AA000001F01AFD002105E054F8210008B10120F1
:10AA100010BD491C0029F7D00020F9E770B50021CE
:10AA20000120FDF7CFFE044600BF254625B100BF3B
:10AA30002846FCF757FA00BF00BF70BD10B50848A4
:10AA4000007850B1002405E0022C02D02046FDF72A
:10AA5000AFFD641C042CF7D301E0FDF7EDFD10BD44
:10AA6000542B002010B504460448007800F0010083
:10AA700018B103480078FDF7FBFE10BD502B0020F5
:10AA80004C2B002010B502F037FE20B902F05AFE20
:10AA900000200149887010BD74350020F721018025
:10AAA000172141800021017141711B218171C17108
:10AAB000704770B54FF48041002002F05DF8044605
:10AAC00000BF254625B100BF2846FCF70BFA00BFA2
:10AAD00000BF01F017FE70BD2DE9FF4100272E4891
:10AAE00000F0A3FC2C48001F00F09FFC2B4880685E
:10AAF00003902B4805680398284028490C3101EB46
:10AB0000800800BF03A94046FFF700FF30B103985B
:10AB1000284022490C3101EB800800E000E0F1E719
:10AB200000BF00240AE00398411C284003911B4900
:10AB30000C3151F820004DF82400641C022CF2D393
:10AB4000009800F0030001280DD0022814D1BDF8B0
:10AB500006700421009801EB9050401E039901EB10
:10AB60009000039009E0BDF806700098C0F38310D0
:10AB700003990844039000E000BF00BF0648001F8F
:10AB800000F04CFC064616B104490398886038462C
:10AB900004B0BDE8F0810000B83C0020A0380020DF
:10ABA000102C0020FFF785FFFCF7A2FF044600BF32
:10ABB000254625B100BF2846FCF794F900BF00BF29
:10ABC00005F044FD05F0CAFC00F074F9FFF726FF1C
:10ABD00004F0A2F9FDF7A0FBFFF72CFAFFF7A0FAAB
:10ABE00005F030F9FCF762F8FEF7E6FA1249134A6D
:10ABF000891AC908032242EA014011A101F024FF89
:10AC00000D490E4A891AC908032242EA014016A2D8
:10AC10001BA101F023FF0849084A891AC908032229
:10AC200042EA01401EA221A101F018FFFCF776F8CC
:10AC300001E0FFF791FCFCE7A42003004C20030097
:10AC40005B4D41494E5D20424C452054656D706C12
:10AC5000617465206578616D706C652073746172D4
:10AC60007465642E00000000562D487730312E3078
:10AC7000312E30302D467730312E30302E303400AA
:10AC80005B4D41494E5D2050524F4A4543545F53FE
:10AC9000575F56455253494F4E203A2025730000C6
:10ACA00046595A5F4446555F424C45005B4D414909
:10ACB0004E5D204445564943455F4E414D45203A3F
:10ACC000202573002DE9F04105460E4614469846AE
:10ACD000A888871C2088801C3844404502D90C2055
:10ACE000BDE8F081FE2F01D90C20F9E7781C2188FE
:10ACF00070542088401C2080FF20218870542088B8
:10AD0000401C208022889119288805F097FF21880F
:10AD100008442080A88800280DDDA86808B907200D
:10AD2000DEE7AA8823889819A968FBF79FFB20888B
:10AD3000A988084420800020D2E72DE9FF4F87B082
:10AD4000044691461E46A2462546BAF806009AF8E1
:10AD500005104843001F0690BAF806B0301DB0FB3E
:10AD6000FBF00590301DB0FBFBF10BFB11000490D4
:10AD7000D9F8000081190698814202D90698801BF3
:10AD800001E0D9F800000746C9F8007003E02D681B
:10AD90000598401E059005980028F8D10390049866
:10ADA000ABEB0008B84501D9384600E04046804684
:10ADB00023E00399089808440290281D0499084448
:10ADC0000190149828B14246DDE90110FBF74EFBD3
:10ADD00004E04246DDE90101FBF748FB0020049056
:10ADE0002D68A7EB0807039840440390BB4501D9A1
:10ADF000384600E05846804600BF002FD9D10BB03E
:10AE0000BDE8F08F70B503460C469CB101F0D8FE4A
:10AE1000054600220AE0084800EB820108881E6807
:10AE2000B04202D11A60002070BD521CAA42F2D377
:10AE30000520F9E70020F7E700000000F7B5054618
:10AE4000164600BF334601AA29461048FDF78FFA7F
:10AE50000446082C0CD0132C0AD0052C08D000BFB7
:10AE6000274627B100BF3846FCF73CF800BF00BFBB
:10AE7000132CE7D00649074A891AC908032242EA77
:10AE80000140224604A101F0E9FDFEBD142B002083
:10AE9000A42003004C2003006D7920626C652073B0
:10AEA000656E642072657475726E203A2025640D9B
:10AEB0000A00000070B50A48FEF766FFFEF78CFE38
:10AEC000044600BF254625B100BF2846FCF70AF816
:10AED00000BF00BF06F026F804F0CEF970BD0000F8
:10AEE000719A02002DE9F84F05460F461446984620
:10AEF0002878012804D1687810B90720BDE8F88FB8
:10AF00002088801C404508D82878012807D120884F
:10AF1000801C69780844404501D90C20EEE7208860
:10AF2000A8EB0000801E86B200962188891CC819F3
:10AF300069467DDF814600BF484600B1DEE700BFBD
:10AF40002878022804D06878BDF80010884206DB13
:10AF5000BDF80000B04202DC4FF0090A0BE04FF0F0
:10AF6000080A2878012805D16878B04202DC6878A0
:10AF7000009000E00096BDF80000FE2801D90C20EA
:10AF8000BCE7BDF80000401C218878542088401C94
:10AF90002080208807F800A02088401C208020887E
:10AFA000BDF80010084420800020A7E7144800687E
:10AFB000401C38B913480178124808300078C0F3B3
:10AFC000031205E00E4801684FF08050D0F834219C
:10AFD000062912D1032A06D0042A06D0052A06D053
:10AFE000062A08D105E0012070470120FCE7012076
:10AFF000FAE70120F8E70120F6E70020F4E7000077
:10B0000030010010E00F00F014480068401C38B90F
:10B0100013480178124808300078C0F3031205E0A5
:10B020000E4801684FF08050D0F83421062912D123
:10B03000032A06D0042A06D0052A06D0062A08D1FB
:10B0400005E0012070470120FCE70120FAE701201C
:10B05000F8E70120F6E70020F4E7000030010010D7
:10B06000E00F00F014480068401C38B9134801781C
:10B07000124808300078C0F3031205E00E4801685A
:10B080004FF08050D0F83421062912D1032A06D07F
:10B09000042A06D0052A06D0062A08D105E0012098
:10B0A00070470120FCE70120FAE70120F8E70120C2
:10B0B000F6E70020F4E7000030010010E00F00F098
:10B0C0000E4802780D4808300078C0F30311062AB4
:10B0D00012D1032906D0042906D0052906D0062955
:10B0E00008D105E0012070470020FCE70020FAE7C6
:10B0F0000020F8E70020F6E70020F4E7E00F00F07A
:10B100000E4802684FF08050D0F83411062A12D150
:10B11000032906D0042906D0052906D0062908D11E
:10B1200005E0002070470020FCE70020FAE701203E
:10B13000F8E70120F6E70020F4E7000030010010F6
:10B1400014480068401C38B9134801781248083088
:10B150000078C0F3031205E00E4801684FF08050FC
:10B16000D0F83421062912D1032A06D0042A06D0A9
:10B17000052A06D0062A08D105E0012070470120E3
:10B18000FCE70120FAE70120F8E70120F6E70020BC
:10B19000F4E7000030010010E00F00F00E480278E4
:10B1A0000D4808300078C0F30311062A12D1032994
:10B1B00006D0042906D0052906D0062908D105E0C5
:10B1C000012070470020FCE70020FAE70020F8E7A4
:10B1D0000020F6E70020F4E7E00F00F014480068D4
:10B1E000401C38B913480178124808300078C0F381
:10B1F000031205E00E4801684FF08050D0F834216A
:10B20000062912D1032A06D0042A06D0052A06D020
:10B21000062A08D105E0012070470120FCE7012043
:10B22000FAE70120F8E70120F6E70020F4E7000044
:10B2300030010010E00F00F00E4802780D48083091
:10B240000078C0F30311062A12D1032906D004297D
:10B2500006D0052906D0062908D105E0012070474F
:10B260000020FCE70020FAE70020F8E70020F6E7DE
:10B270000020F4E7E00F00F00E4802780D48083097
:10B280000078C0F30311062A12D1032906D004293D
:10B2900006D0052906D0062908D105E0012070470F
:10B2A0000020FCE70020FAE70020F8E70020F6E79E
:10B2B0000020F4E7E00F00F014480068401C38B9A3
:10B2C00013480178124808300078C0F3031205E0F3
:10B2D0000E4801684FF08050D0F83421062912D171
:10B2E000032A06D0042A06D0052A06D0062A08D149
:10B2F00005E0002070470020FCE70120FAE701206C
:10B30000F8E70120F6E70020F4E700003001001024
:10B31000E00F00F070B504462046FAF7C6FF054678
:10B320000DB1002070BD1120FCE710B5044609B92D
:10B330000E2010BD92FBF3F003FB102008B1092092
:10B34000F7E7216000206060A060A281E38100BF78
:10B35000EFE770B504460D4629462046FAF75AFF36
:10B3600018B12A882168881870BD0020FCE770B5E4
:10B3700005460C4620886188884204D12846FAF7A1
:10B380008BFF012070BD0020FCE770B504460D4620
:10B3900029462046FAF763FF18B16A8821688818A1
:10B3A00070BD0020FCE770B505460C46208861881A
:10B3B000884204D12846FAF749FF012070BD0020D9
:10B3C000FCE770B505460C4604F01F0301229A40C5
:10B3D000D143620905EB820000F040F8064670BDDB
:10B3E00010B50246480952F8200001F01F0401235D
:10B3F000A340184008B1012010BD0020FCE770B543
:10B4000005460C4604F01F03012202FA03F162090B
:10B4100005EB820000F059F8064670BD10B50446F1
:10B420000021204600F030F810BD10B5044601217F
:10B43000204600F04AF810BD10B504460121204610
:10B4400000F02DF810BDF8B504460D466A462946B1
:10B450002046FAF776FF06460098F8BDF8B5044690
:10B460000D466A4629462046FAF751FF06460098DF
:10B47000F8BDF8B504460D466A4629462046FAF757
:10B4800060FF06463046F8BDF8B504460D466A46EC
:10B4900029462046FAF73BFF06463046F8BDF8B588
:10B4A00004460D466A4629462046FAF723FF06461B
:10B4B0003046F8BDF8B504460D466A462946204692
:10B4C000FAF70CFF06463046F8BDF8B504460D46BF
:10B4D0006A4629462046FAF70DFF06460098F8BD51
:10B4E000F8B504460D466A4629462046FAF736FF67
:10B4F00006460098F8BDF8B50446002600200090E6
:10B500006846FBF7C3FE206800686168884215D969
:10B5100020680068401E226810600178204600F014
:10B5200033F80646207A21680978401AC5B22068A7
:10B530000079A84201DA2068057100BF9DF800007B
:10B54000FBF7AAFE3046F8BD0246D068081A138AF7
:10B55000B0FBF3F0C0B27047F8B504460D462E4676
:10B56000002000906846FBF791FE31462046FFF729
:10B57000EBFF21680A68511C2368196010709DF860
:10B580000000FBF789FEF8BD0246138AD06801FB74
:10B590000300704710B5014600BF09B90E2010BD69
:10B5A00000BF087A0B79C01AC2B2D1E90030186026
:10B5B00005E008680368581C0C6820601A70101EAB
:10B5C000A2F10103DAB2F4D10B68187100BFE6E70B
:10B5D00030B502460B46D40802F007020120904025
:10B5E0001D5D284030BD024600BF0AB90E207047DD
:10B5F00000BF172901DBF72901DD0720F7E71180DC
:10B600000020F4E770B504460E4600BF0CB90E20CA
:10B6100070BD00BF2661F720208060801B20207154
:10B62000002505E0A11D01EBC500FFF737FA6D1CF1
:10B63000002DF7D00020EBE72DE9F04706468846BD
:10B640004546B488012C01DBBDE8F087308824280A
:10B6500020D006DC102809D011280CD0232823D1B3
:10B660001DE03A280CD055281ED10EE03146284660
:10B6700002F034FE19E03146284602F052FF14E091
:10B680003146284602F0BCFF0FE03146284602F062
:10B6900053FF0AE03146284602F0C0FE05E031467D
:10B6A000284602F0E5FE00E000BF00BFA81D00EB49
:10B6B000C400007918B3A81D30F834102046A5DF67
:10B6C000074657B90021A81D00EBC40001710121F4
:10B6D000A81D00EBC400417110E0112F0ED03846B8
:10B6E00001F092FF81460749074A891AC9080122D9
:10B6F00042EA01404A4605A101F0B0F900BF00BF8F
:10B70000A2E700004C2003004C20030073645F623A
:10B710006C655F67617474635F65786368616E67A9
:10B72000655F6D74755F7265717565737428292026
:10B7300072657475726E65642025732E00000000BA
:10B74000024600BF0AB90E20704700BF00BF107844
:10B75000DE2801D00820F7E700BF51800020F3E782
:10B76000024600BF0AB90E20704700BF00BF09B9EA
:10B770000E20F9E700BF1078DE2801D10820F3E79A
:10B7800008685060DE2010704FF6FF705080002077
:10B79000EAE770B504460E4600BF06B970BD00BFAB
:10B7A00000BF04B9FAE700BF354600BF2878DE289D
:10B7B00000D0F3E700BFA0886988884202D12846FC
:10B7C00005F0F9FA2088012806D0022809D01128AE
:10B7D00011D0512817D109E0211D284603F070F837
:10B7E00012E0211D284603F06AF80DE0211D2846CD
:10B7F00003F010F808E0A0886988884202D14FF66B
:10B80000FF70688000E000BF00BF00BFC6E70146D0
:10B810004FF08040405808B1012070470020FCE7FD
:10B8200008B500224FF080410A500958009100BF2E
:10B8300008BD00000149086070470000080300408F
:10B84000012291070A50704770B540F6F870006801
:10B85000401C18B94FF01020406902E040F6F87023
:10B8600000680546681C00281CD01449144A891A2F
:10B87000C908032242EA01402A4612A101F0EEF86B
:10B88000284613DF04465CB10C490D4A891AC908E1
:10B89000012242EA014016A101F0D6F8204670BD0F
:10B8A0000020FCE70549064A891AC908012242EA34
:10B8B00001401CA101F0C8F80420F0E7A420030017
:10B8C0004C20030053657474696E67207665637459
:10B8D0006F72207461626C6520746F20626F6F7488
:10B8E0006C6F616465723A203078253038780000DA
:10B8F0004661696C65642072756E6E696E6720734F
:10B90000645F736F66746465766963655F766563AB
:10B91000746F725F7461626C655F626173655F739F
:10B92000657400004E6F20626F6F746C6F616465A8
:10B93000722077617320666F756E640010B50E49D2
:10B940000E4A891AC908032242EA01400C4A0DA195
:10B9500001F084F80A4813DF04465CB10649074A3F
:10B96000891AC908012242EA014011A101F06CF8CC
:10B97000204610BD0020FCE7A42003004C2003005B
:10B980000060020053657474696E672076656374A5
:10B990006F72207461626C6520746F206D61696ED6
:10B9A000206170703A20307825303878000000002F
:10B9B0004661696C65642072756E6E696E6720738E
:10B9C000645F736F66746465766963655F766563EB
:10B9D000746F725F7461626C655F626173655F73DF
:10B9E0006574000010B500240F48007808B1852464
:10B9F00011E000200C49886048600861C8600B486D
:10BA000001F08EFE044601F029FD08B901F07EFE2A
:10BA100001200549087001F06FFE10B101200249B4
:10BA20008870204610BD000074350020359002005B
:10BA300008B5002000906846FBF728FC0748C0685E
:10BA4000401E0649C8600846C06808B9FFF71AF8E2
:10BA50009DF80000FBF720FC08BD000074350020B5
:10BA60002DE9F04188B004460F46154626781A485D
:10BA700040F826501949386941F82600787F18495E
:10BA80008855202239466846FAF7F0FC04964FF0B4
:10BA9000000820781249085C50B10DB1114800E04F
:10BAA000002002466946201D02F098F980460EE00B
:10BAB00020780B49085C50B90DB10B4800E000201C
:10BAC0000246694604F10C0002F050F880464046F8
:10BAD00008B0BDE8F08100006C2B0020702B002026
