:020000040002F8
:10600000785E0020C1630200C9630200CB63020016
:10601000CD630200CF630200D163020000000000E4
:10602000000000000000000000000000D363020038
:10603000D563020000000000D7630200D9630200AC
:106040002D660200DB630200D5690200DB630200FB
:10605000DB630200DB63020071650200DB630200A8
:10606000DB630200DB630200DB630200DB63020030
:10607000DB630200DB630200DB630200DB63020020
:10608000DB63020081660200DB630200DB63020067
:10609000DB630200DB63020025670200DB630200B2
:1060A000DB630200DB630200DB630200DB630200F0
:1060B000DB630200DB630200000000000000000060
:1060C000DB630200DB630200DB630200DB630200D0
:1060D000DB630200DB630200DB6302000000000000
:1060E00000000000000000000000000000000000B0
:1060F00000000000000000000000000000000000A0
:10610000000000000000000000000000000000008F
:10611000000000000000000000000000000000007F
:10612000000000000000000000000000000000006F
:10613000000000000000000000000000000000005F
:10614000000000000000000000000000000000004F
:10615000000000000000000000000000000000003F
:10616000000000000000000000000000000000002F
:10617000000000000000000000000000000000001F
:10618000000000000000000000000000000000000F
:1061900000000000000000000000000000000000FF
:1061A00000000000000000000000000000000000EF
:1061B00000000000000000000000000000000000DF
:1061C00000000000000000000000000000000000CF
:1061D00000000000000000000000000000000000BF
:1061E00000000000000000000000000000000000AF
:1061F000000000000000000000000000000000009F
:10620000DFF80CD000F076F90048004785980200CE
:10621000785E002030B450E8012F93B2C489234443
:106220008489A34228BF1B1B0489A34202BFBFF37A
:106230002F8F002007E0C3EA020340E80134002C5E
:10624000E9D14FF001000A6030BC704750E8012FDF
:10625000C2EA024240E801210029F7D1704730B478
:1062600050E8022F1FFAA2F3C488A34202BFBFF373
:106270002F8F00200DE0C48923448489A34228BFC6
:106280001B1BC2EA034340E80234002CE8D14FF064
:1062900001000A6030BC704750E8022FC2EA224277
:1062A00040E802210029F7D17047034653E8022F46
:1062B000D988B2EB324F4FF0000017BF92B241EADB
:1062C000014142EA014104E05A68B2EB324F08BF93
:1062D000012043E80212002AE8D1704730B4044696
:1062E00054E8000F0D4644E80053002BF8D1156028
:1062F00030BC704730B4044654E8000F40EA010552
:1063000044E80053002BF7D1156030BC704730B41F
:10631000044654E8000F00EA010544E80053002B4E
:10632000F7D1156030BC704730B4044654E8000F14
:1063300080EA010544E80053002BF7D1156030BC1A
:10634000704730B4044654E8000F00EB010544E800
:106350000053002BF7D1156030BC704730B40446B1
:1063600054E8000FA0EB010544E80053002BF7D1DF
:10637000156030BC704770B404464FF0000054E81C
:10638000006F0D68AE4207BF44E80023012044E8D7
:1063900000630E60002B1CBF0020F0E770BC70474C
:1063A00030B4044654E8000F88422CBF451A054615
:1063B00044E80053002BF5D1156030BC7047000055
:1063C0000648804706480047FEE7FEE7FEE7FEE78F
:1063D000FEE7FEE7FEE7FEE7FEE7FEE73D670200B9
:1063E000016202002DE9F05F0546002092469B46BF
:1063F00088460646814640241BE0284641464746DB
:10640000224600F067F853465A46C01A914110D30D
:1064100011461846224600F016F82D1A67EB0108BF
:106420004F4622460120002100F00DF817EB00092D
:106430004E41201EA4F10104DFDC484631462A46C5
:106440004346BDE8F09F202A04DB203A00FA02F11F
:10645000002070479140C2F1200320FA03F3194352
:1064600090407047004870479CE8020040EA0103F2
:106470009B0703D009E008C9121F08C0042AFAD2FA
:1064800003E011F8013B00F8013B521EF9D27047BE
:10649000D2B201E000F8012B491EFBD27047002266
:1064A000F6E710B513460A4604461946FFF7F0FF13
:1064B000204610BD421C10F8011B0029FBD1801A98
:1064C0007047034611F8012B00F8012B002AF9D17F
:1064D00018467047202A04DB203A21FA02F00021F6
:1064E000704721FA02F3D040C2F1200291400843E4
:1064F00019467047064C074D06E0E06840F001037E
:1065000094E8070098471034AC42F6D3FFF77CFEBE
:1065100008F0020028F0020070B58C1810F8015B3A
:1065200015F0070301D110F8013B2A1106D110F82C
:10653000012B03E010F8016B01F8016B5B1EF9D130
:106540002B0705D40023521E0DD401F8013BFAE7B6
:1065500010F8013BCB1A921C03E013F8015B01F821
:10656000015B521EF9D5A142D8D3002070BD0000B6
:106570002DE9F84F0026002000904FF48077012588
:10658000002410E0384604F059FA40B100BF254815
:106590000068284018B1384604F042FA2E436D00D6
:1065A000381D87B2641C082CECD34FF4BE7004F085
:1065B00045FA50B14FF4BE7004F032FA46F000468E
:1065C0006A460121002004F0BBF9F0B210B30125A6
:1065D00000241DE005EA0600C0B100BF124850F8D3
:1065E0002400C0F30420814600BF0F4850F8240067
:1065F000C0F301408246204602F066F88046B8F1BA
:10660000000F02D051464846C04700BF6D00641CD1
:10661000082CDFD306F0004010B1684606F070FB8E
:10662000BDE8F88F046300401065004010B54FF4DA
:10663000807003F0EAFE80B14FF4807003F0EEFE4C
:10664000012003F0F5FE0D48407930B901200B49D7
:10665000487108460168002088474FF4827003F0B3
:10666000D4FE50B14FF4827003F0D8FE022003F044
:10667000DFFE024801680120884710BD382B00204A
:1066800010B5034A1068034A1168884710BD00001E
:10669000942B0020902B002010B500F0A3F910BD22
:1066A0002DE9F047074688461646C24607EB4701E4
:1066B0001B4800EBC109D9F8140020B1012811D002
:1066C000022826D11EE0484600F0C4F90546B5422E
:1066D00001D2002405E0344632465146484600F0D7
:1066E00000FA18E0484600F0B5F90546B54201D277
:1066F000284600E03046044622465146484600F00F
:10670000F0F908E032465146484600F0B1F9044637
:1067100001E0002400BF00BF2046BDE8F087000074
:10672000083C002010B505F081F810BD0148024971
:10673000086070470090D003182C002010B503F0BB
:1067400089FA28B192480088C0F304209149086072
:1067500003F0DCFA10B190489049486703F016FB4B
:1067600030B18B48E0380068C0F342308C49086093
:1067700003F03AFB28B18B48006820F0807089490B
:10678000086003F051FB48B10020874908604FF0D2
:106790008041C1F810018249091F086003F072FBB3
:1067A00018B103207E496431086003F08BFB68B1A7
:1067B00005207E49086001207C497831086000206E
:1067C0007A49083108603F20091F086003F09AFBEE
:1067D000002855D06E48E0300068754908606C4864
:1067E000E4300068091D08606948E8300068091D48
:1067F00008606748EC300068091D08606448F030A4
:106800000068091D08606248F4300068091D0860CE
:106810005F48F83000686649203108605C48FC3009
:106820000068091D086063480068091D0860614828
:10683000001D0068091D08605E4808300068091DD9
:1068400008605C480C300068091D08605948103029
:106850000068574940310860564814300068091DE7
:106860000860544818300068091D086051481C3001
:106870000068091D08604F4820300068091D086045
:1068800003F0BAF930B14248CC38006800F04F004C
:106890004949086003F00CFA40B14848006800F02C
:1068A000010018B16FF001004449086003F04EFA8E
:1068B00028B14348006840F4806041490860394885
:1068C0007438006840F4700036497439086000BFBD
:1068D00000BF00BFBFF34F8F00BF00BF00BF00BFAE
:1068E00000BF00BFBFF36F8F00BF00BF00BF3548C0
:1068F000006800F0004028B93248001D006800F030
:106900000040E8B301203049086000BF2F4800680C
:106910000028FBD015202B49086000BF2B480068D9
:106920000028FBD015212748001D016000BF274823
:1069300000680028FBD000202349086000BF2348DE
:1069400000680028FBD000BF00BF00BF00BF00BF31
:10695000BFF34F8F00BF00BF00BF1248F038006880
:1069600000F4E0601A490843001D0E49F039086040
:1069700000BF00BF00BFBFF34F8F00BF00BF00E0EC
:1069800003E000BF00BF00BFFDE7FFF7CFFE10BD73
:1069900024030010403501400DF0ADBA00C007409F
:1069A0003C050040FCED00E00C01004010560040AA
:1069B00020C5004024040010E40E00400004004004
:1069C0003C1700400012001004E5014000E40140C3
:1069D0000000FA0510B502490868804710BD0000A4
:1069E000402B002010B5124C02202061606111A0E4
:1069F000A0611349E1614FF4007121620021A1629D
:106A00006162E1620BA0A0640E49E164102121657E
:106A10000021A1656165E1650BA1E01DFFF751FD56
:106A20000AA12046FFF74DFD2020A07110BD0000F7
:106A3000F03B00205465726D696E616C00000000CF
:106A4000683C0020683E002052545400534547479C
:106A50004552000010B501460A69CB689A4204D835
:106A60008C68641EE41AA01801E0D41A601E10BDE0
:106A70002DE9F0470446894617464FF0000AE568BD
:106A800000BFD4F81080A84503D9A8EB0500461E26
:106A900004E0A5EB0800401CA1680E1AA068401B8A
:106AA000B04201D9304601E0A068401B0646BE4214
:106AB00001D2304600E03846064661684819324641
:106AC0004946FFF7D3FCB244B144BF1B3544A0682C
:106AD000A84200D10025E560002FD2D15046BDE884
:106AE000F0872DE9F047044689461546E668A06818
:106AF000871BAF4208D9616888192A464946FFF7C3
:106B0000B5FC7019E06010E0B8466168881942462B
:106B10004946FFF7ABFCA5EB070809EB0701424626
:106B20006068FFF7A3FCC4F80C80BDE8F08702E0C2
:106B300008C8121F08C1002AFAD170477047002008
:106B400001E001C1121F002AFBD170470146202934
:106B500008DA012088400A4A104008B10120704735
:106B60000020FCE7402909DAA1F12000012202FA05
:106B700000F008B10120F2E70020F0E70120EEE785
:106B8000FC06FFBD00BFEFF31081084672B67047E8
:106B90000246002104E0505C08B101207047491C06
:106BA0000629F8D30020F9E770B504460D4604F233
:106BB0002740FFF7EDFF0646012D06D0022D0DD030
:106BC000032D11D0042D19D113E0A07928B194F828
:106BD000240010B90EB1012070BD00BFE07910B1E2
:106BE0000EB10220F8E700BF207A08B10320F3E7D6
:106BF00000BF607A08B10420EEE700BF0020EBE799
:106C00000146481C052290FBF2F302FB1300C0B2C0
:106C10007047014691F82420012A01D1EE2000E0BE
:106C20001F20704730B5ABB0AC216846FFF737FC8A
:106C300002208DF8000000208DF8020006208DF85B
:106C400003000121ADF84C100F49149101218DF87A
:106C50007C104FF4A0712291002123910B482990C0
:106C600069460B4800F09BFC044600BF254625B151
:106C700000BF284600F0F2F800BF00BF0121044821
:106C800000F08AFC2BB030BD002B00204DC4020068
:106C90003C2C002070B50321064800F022FD04467C
:106CA00000BF254625B100BF284600F0D7F800BF39
:106CB00000BF70BD3C2C002010B50446022001F03E
:106CC00003F910BD10B5002407E00749096811F861
:106CD0003400012104F054FF641C0448007884420D
:106CE000F3D3002010BD0000482B00204C2B0020C7
:106CF0002DE9F84306460D4617460A2F02D2072013
:106D0000BDE8F88305F080F838B905F013F80446BB
:106D100000BF204600B1F3E700BF184806601848DE
:106D200005701848076018480021016041608160C3
:106D3000C160164A1160516015E006EBC5081448A1
:106D40000068009098F802008DF8010098F80000A3
:106D5000104A694604F06AFF044600BF204600B1AD
:106D6000CEE700BF00BF281EA5F10101CDB2E4D1DE
:106D7000094A0021094800F0B9F8C1E7482B002072
:106D80004C2B0020502B002088350020582B002051
:106D90008CE5020085930200798C020088E50200F0
:106DA00072B600BF04F098F900BF00BF03F042FFC5
:106DB0000028FBD100BF00BF1D491E4A891AC9081F
:106DC000012242EA01401CA104F0C2F800BF1D48A4
:106DD000006800F0010000B100BE00BF1449154A70
:106DE000891AC908022242EA014017A104F0B0F84A
:106DF00000BF00BF00BF00BF00BFBFF34F8F00BF89
:106E000000BF00BF0F48E438006800F4E06012499A
:106E10000843001D0B49E439086000BF00BF00BFF4
:106E2000BFF34F8F00BF00BF00BF00BF00BFFDE733
:106E300090F0020038F00200466174616C206572C7
:106E4000726F7200F0ED00E053797374656D20721B
:106E500065736574000000000000FA053EB5044645
:106E6000002000900190029002946A46002144F2B2
:106E70000100FFF795FF3EBD70B504460D46204664
:106E800002F072F928B12946204602F061F900208B
:106E900070BD0520FCE7034609B90E20704712B10A
:106EA000501E104008B10920F8E71960501E988064
:106EB00000209860D86000BFF0E770B504460D462A
:106EC000204602F051F9A188884205D8294620467B
:106ED00002F05DF9002070BD0420FCE710B5024807
:106EE00001F04CFF10BD0000602B002010B50346E0
:106EF0000C460AB9072010BD19684A61012C01D15E
:106F0000012000E0002008610020F4E738B51348B4
:106F1000006800900823582211491248006803F0C5
:106F20001FF804460CB1204638BD0F4A69460F4889
:106F300001F02AFF04460CB12046F5E701210B4879
:106F400001F0C8FF01230A4A1946084801F0E8FE8B
:106F50000120084908702046E6E70000A0E502008D
:106F60009835002090E50200B5CF0200602B00208C
:106F7000FFFF7F006C2B00202DE9F04106460D46F7
:106F800017463446207F10B10020BDE8F081A7618C
:106F900002F0DAF9401941F10001C4E90201206967
:106FA00000B125612146002006F058FDEDE770B5DF
:106FB00004462546002028772946012006F04EFD8C
:106FC00070BD00002DE9F04104460F4807782146C6
:106FD0000E48FFF751FF804697B100200A4908701C
:106FE00001220B490B4803F0B1FA054600BF2E46BB
:106FF00026B100BF3046FFF731FF00BF00BF00BF22
:107000004046BDE8F0810000B62B00201836002075
:10701000B52B00209C2B00202DE9F04188B00446C0
:107020000E46174698462B4807601EB9072008B041
:10703000BDE8F081B08882B227483168FFF72BFFA6
:10704000054600BF284600B1F1E700BFB08982B213
:107050002248B168FFF71FFF054600BF284600B170
:10706000E5E700BF20221E496846FFF7FFF9606987
:107070000690207C08B1012000E000208DF814006B
:107080008DF81C80607C08B10E2000E000208DF897
:107090001500E0680290A068039020680190606885
:1070A0000090104A6946104803F00AFA054600BFEE
:1070B000284600B1BBE700BF00200C4908702068DB
:1070C000401C28B101220A49074803F03FFAAEE705
:1070D0000020ACE7B02B0020183600202836002016
:1070E00024E70200E5DC02009C2B0020B62B0020E8
:1070F000B52B00202DE9F041054629461448FFF73D
:10710000DCFE064606BB134C002720781249085CBB
:1071100020B1201D05F08AF9074608E020780E49C5
:10712000085C20B904F10C0005F028F8074600BF00
:1071300057B90A490648FFF79FFE28B901220749B7
:10714000044803F025FA06463046BDE8F081000009
:10715000283600209C2B0020342B0020B42B00204C
:1071600010B50446204606F073F810BD70B504460D
:1071700025460E488068B0B1ADB9FFF703FD06465D
:107180000A4800680A490860084840684FF0E02152
:10719000C1F804010020054988601EB900BF62B62D
:1071A00000BF00BF00BF00BF70BD00000C36002054
:1071B00000E100E0F8B505460C4617462088001DA2
:1071C000B84201D90C20F8BD684679DF064600BFF9
:1071D000304600B1F7E700BF0320218868542088BB
:1071E000401C20801920218868542088401C208061
:1071F00020884119BDF8000006F0D0FF218808441E
:1072000020800020DFE770B505460C462068401C52
:1072100028B1206803F0CBFB206803F060FB6068B6
:10722000401C18B10021606803F03FFB2868A16989
:10723000C0F8241500BF617D227D286841EA020361
:10724000C0F86C3500BFD4E90012286804F001FCD6
:10725000207D012814D1A068401C18B10021A0682D
:1072600003F023FBE068401C28B1E06803F09FFBBB
:10727000E06803F034FBD4E90221286804F0D2FB73
:1072800070BD70B505460C462068401C28B12068CA
:1072900003F098FB206803F02EFB6068401C18B1D7
:1072A0000021606803F00EFB2868A169C0F824156E
:1072B00000BF617D227D286841EA0203C0F86C3579
:1072C00000BFD4E90012286804F0FBFB207D0128F0
:1072D00014D1A068401C18B10021A06803F0F2FA94
:1072E000E068401C28B1E06803F06CFBE06803F044
:1072F00002FBD4E90221286804F0C4FB70BD000041
:10730000002114E00C48D0F81024012308E000BF4D
:10731000D0680079884201D1002303E0D068026878
:10732000002AF4D100BF0BB108467047491C0A2956
:10733000E8DB4FF0FF30F8E7D03700202DE9F041CF
:1073400004460F46154615B90E20BDE8F081002011
:10735000286000BF0CB90E20F7E700BF00BF20680F
:1073600008B90E20F1E700BF00BFE088C11700EBAD
:1073700091718910A0EB810109B10720E5E700BFF9
:10738000384600F0B7FAC6B2142E01D10520DCE76A
:107390002079B04201DC0420D7E7E188206806FBB1
:1073A000010028600020D0E72DE9FC410546884611
:1073B0001646002437880020308095F82D0058B1FB
:1073C0003A463146404600F0ADFA044600BF20463A
:1073D00008B1BDE8FC8100BFA87850B13A463146FB
:1073E0004046FFF7E7FE044600BF204600B1F0E745
:1073F00000BFE87860B1E97848B23B463246414682
:1074000001F0DDFE044600BF204600B1E1E700BF09
:10741000686868B1696891F900003B4632464146A8
:1074200006F0A9FB044600BF204600B1D1E700BF2B
:10743000288900280EDD43460622022105F10800B6
:10744000CDE9006706F07AFF044600BF204600B190
:10745000BFE700BF288A00280EDD4346072203212C
:1074600005F11000CDE9006706F068FF044600BF93
:10747000204600B1ADE700BF288B00280EDD434653
:107480001522142105F11800CDE9006706F056FF1A
:10749000044600BF204600B19BE700BF286A58B1F0
:1074A0003B4632464146286A01F0DEFA044600BFF8
:1074B000204600B18DE700BF686A58B13B463246AE
:1074C0004146686A02F03CFA044600BF204600B11B
:1074D0007FE700BF95F82C0000280BDD3B463246C5
:1074E0004146284605F0C8FF044600BF204600B1CB
:1074F0006FE700BF287858B13B46324641462846E0
:1075000002F016FB044600BF204600B161E700BF51
:1075100020465EE7F8B504460E461546002000906A
:107520002B466A463146204600F008F807460FB958
:107530000020F8BDBDF800002044FAE7F0B504468D
:107540000D461E4604B10AB90020F0BD002103E03B
:10755000605C401C084481B2481CA84206DA1088CE
:107560008842F5DC481C205CB042F1D1A94201DB25
:107570000020EAE7881C87B2605C10B1605C401EA6
:1075800000E0002083B213B1F818A84201DD00200A
:10759000DBE717801846D8E780F83010704770B5E1
:1075A00004460D4605B10CB90E2070BD05F17800FA
:1075B00001F0FBF908B90720F7E70020A0702C22A2
:1075C00005F17801201DFEF751FF002084F83000FE
:1075D000D5F8A4006063D5F8A800A0634FF6FF704B
:1075E000A4F8240404F58260C4F82004002140F2C9
:1075F0002C40C4F82614A4F82A140155207810B998
:10760000FF2084F8540004F15500C4F8100420460B
:10761000FFF7FFFA40F21441085304F2144204F158
:1076200055012846FFF7C0FE064600BF304600B1B0
:10763000BBE700BF04F231204FF4836108512046BC
:10764000FFF7E7FAA4F81C044FF48360015904F231
:107650001C4205F13C00FFF7A7FE064600BF30467E
:1076600000B1A2E700BF012151200155208B81B25A
:1076700048200153012084F83C000021216450205F
:1076800001556169616404F13C02002104F1540078
:1076900072DF064600BF304600B186E700BF01201A
:1076A0002070304681E770B504460D462E4620888E
:1076B000102804D0112807D026280FD109E0214630
:1076C000304604F0E9FF0AE02146304605F0A9F80B
:1076D00005E02146304605F0F0F900E000BF00BFAC
:1076E00070BD70B504460E46207808B9082070BDFC
:1076F000A670002140F22C40C4F82614A4F82A14E5
:107700000155A07910B1A078012809D0E07910B115
:10771000A078012804D0E07970B1A07802280BD1BC
:10772000606B30B1012084F82D040820616B88471C
:1077300002E0002084F82D0431462046FFF734FA99
:10774000A070606BA0B1A078032802D0A0780428B4
:107750000ED1607960B194F82E0448B9002084F805
:107760003004012084F82F040720616B884702E071
:10777000002084F82F04182104F13C00FEF78FFE4E
:10778000012084F83C0004F12C0005F06DFA20B1D2
:1077900094F82C105120015502E00121512001558F
:1077A00094F8240060B104F1280005F05DFA20B1DE
:1077B00094F828105220015502E001215220015571
:1077C000002150200155A078052824D2DFE800F0E0
:1077D0001F030A11180004F13C01204605F0DEFEEB
:1077E000054619E004F13C01204605F0BFFE0546C0
:1077F00012E004F13C01204605F0E2FE05460BE0F4
:1078000004F13C01204605F009FF054604E0002094
:1078100084F8310000E000BF00BFA07898B104F107
:107820003C0204F15400D4F8201472DF05460DB177
:1078300028465CE794F8301094F8540073DF05464E
:107840000DB1284653E7606B18B194F83100616BB5
:10785000884700204BE700002DE9F041044600BFB7
:1078600014B90E20BDE8F08100BF1C2221461C483F
:10787000FEF7FCFD1B481A490860206860B12068CB
:107880007ADF05460DB12846ECE7164821680A68FC
:1078900002604968416005E012487BDF05460DB192
:1078A0002846DFE7002617E006EB86000E4901EBCD
:1078B000800700BF4FF6FF70388000BF0B4800EB19
:1078C000461078600A4A0021381DFFF70FFB054675
:1078D0000DB10320C6E7761C002EE5D00020C1E7DD
:1078E0000C340020222B0020F8330020D833002055
:1078F00061E2020010B50446204600F005F808B128
:10790000204610BD1420FCE710B50446142C01DB02
:10791000002010BD2146024802F07DFBF9E700007F
:107920002C3400202DE9FC4105460C4617462088E2
:107930000930B84202D90C20BDE8FC8168466DDFF1
:10794000064600BF304600B1F6E700BF0820218898
:1079500068542088401C20801B202188685420887F
:10796000401C208020882844DDF801100160BDF80B
:10797000051081802088801D20809DF8000040082F
:1079800018B900202188685402E001202188685439
:107990002088401C20800020CEE70000F8B5054676
:1079A0000F4600242888212853D006DC10281AD03E
:1079B000112809D013287DD15BE03B287ED05228C6
:1079C00068D05628F7D187E04FF6FF704B49088002
:1079D0004B494C4A891AC908032242EA01404AA18C
:1079E00003F0B6FA87E04649464A891AC9080322D5
:1079F00042EA014048A103F0ABFA072000F076FB11
:107A0000044600BF264626B100BF3046FFF726FADF
:107A100000BF00BFA888394908803949394A891A06
:107A2000C908032242EA014034490A883DA103F013
:107A300099FA32480188464802F080FC044600BFAB
:107A4000264626B100BF3046FFF708FA00BF00BF48
:107A500051E000200090A88869468FDF044600BFEF
:107A6000264626B100BF3046FFF7F8F900BF00BF39
:107A700041E000231A468521204800887FDF044624
:107A800000BF264626B100BF3046FFF7E7F900BF2A
:107A900000BF00BF00231A46194618480088B1DF0E
:107AA000044600BF264626B100BF3046FFF7D6F990
:107AB00000BF01E01EE001E000BF1CE0A888132128
:107AC00076DF044600BF264626B100BF3046FFF7EA
:107AD000C5F900BF00BF0EE0A888132176DF044679
:107AE00000BF264626B100BF3046FFF7B7F900BFFA
:107AF00000BF00E000BF00BFF8BD0000082B002061
:107B000090F0020038F00200446973636F6E6E6596
:107B1000637465642E000000436F6E6E6563746568
:107B2000642E0000424C455F4741505F4556545F0C
:107B3000434F4E4E4543544544206D5F636F6E6E18
:107B40005F68616E646C65203A2025640000000067
:107B5000302C002070B504460D462088102806D031
:107B6000112808D012280ED0502810D107E0204646
:107B700004F0F0FC0CE0204604F03AFE08E0204659
:107B800004F0CCFF04E0204604F0CCFC00E000BF91
:107B900000BF70BD2DE9F04104460F46A68820883D
:107BA000102806D0112817D019283DD01A2848D1FE
:107BB00016E005F0D1F9304605F0AAF920B900BF6A
:107BC0000420FFF74BF906E0E07B022803D13146A1
:107BD0001D4802F02FFA34E0304605F0E1F930E0BC
:107BE000207A0509042D01DB012000E00020024677
:107BF000314615480C3001F0D3FA032D01DB01208A
:107C000000E00020024631460F48083001F0C8FA73
:107C1000022D01DB012000E00020024631460A4827
:107C2000001D01F0BDFA0CE0207A48B9607AC0F37B
:107C3000C0052A46314604480C3001F0B1FA00BFB5
:107C400000BF00BFBDE8F0813434002070B50446A9
:107C5000204606F09DFA054605F0010070BD38B5D6
:107C600003F0A2FD044600BF254625B100BF28460B
:107C7000FFF7F4F800BF00BF002000906946012024
:107C800003F0E2FB044600BF254625B100BF2846AD
:107C9000FFF7E4F800BF00BF684603F0A5FC044608
:107CA00000BF254625B100BF2846FFF7D7F800BF23
:107CB00000BF38BD2DE9F04186B00446884617461E
:107CC0001D4600BF1CB90E2006B0BDE8F08100BF04
:107CD00001AA29466069FFF731FB064600BF30461E
:107CE00000B1F1E700BF4FF6FF70854201D0019867
:107CF00008B90520E8E70198007808B90820E3E70B
:107D00003888F42801DD0720DEE700200290039088
:107D100004900590A088ADF80800CDF81480049771
:107D200001208DF80A0002A92846AEDFCCE700004A
:107D300070B58EB004460E463F4B0FCB09AD0FC554
:107D400000BF14B90E200EB070BD00BF00BF0EB949
:107D50000E20F8E700BF3068A061214609A862DF65
:107D6000054600BF284600B1EDE700BF20788DF83A
:107D700036000A20ADF83400A21C0DA90120A8DFAE
:107D8000054600BF284600B1DDE700BF202101A85D
:107D9000FEF785FB0C20ADF8040020788DF8060076
:107DA000F420ADF808000120ADF80A008DF81000AD
:107DB0009DF8110020F0080008308DF811009DF8A2
:107DC000110020F00400001D8DF8110001208DF835
:107DD00015008DF81600608804F10C0201A900F06E
:107DE000C1FC05460DB12846ADE7202101A8FEF7EC
:107DF00056FB0B20ADF8040020788DF80600F42027
:107E0000ADF808000120ADF80A008DF810009DF8CB
:107E1000110020F0100010308DF8110001208DF8B5
:107E200015008DF816008DF817006088221D01A935
:107E300000F098FC87E70000D8E4020070B5044623
:107E40000D4605B104B970BD2E462088102804D017
:107E5000502807D057280FD109E02146304604F0BA
:107E6000B1FB0AE02146304604F084FE05E02146DD
:107E7000304604F08FFD00E000BF00BF00BFE2E726
:107E80007CB500240DE00848055D03260020009025
:107E90003346024601460190284602F0B6FC00BF78
:107EA000641C042CEFD37CBD90E4020010B50446A2
:107EB00004F0010008B100F04BF804F0020008B132
:107EC000FFF7DEFF10BD000010B502460949885CCF
:107ED00000BF4FF0A0442146D1F80435012484406E
:107EE0009C43C1F80845012484401C40C1F80C455E
:107EF00000BF10BD8CE4020010B504460249085DC5
:107F0000012102F06AFD10BD8CE4020010B50446A8
:107F10000249085D002102F060FD10BD8CE4020002
:107F200010B50146094B585C00BF4FF0A0442346F2
:107F300000BFD3F80445C44004F001040CB1012093
:107F400000E00020024682F0010010BD8CE4020037
:107F50007CB500240CE00948055D00200090034634
:107F6000012211460190284602F04FFC00BF641C1C
:107F7000042CF0D300F004F87CBD00008CE4020077
:107F800010B5002403E02046FFF7B6FF641C042C64
:107F9000F9D310BD10B5002403E02046FFF7B6FF6B
:107FA000641C042CF9D310BD02464FF0FF300021B1
:107FB00006E0054B5B5C934201D1084602E0491C98
:107FC0000429F6D300BF704790E402002DE9F04188
:107FD00006460F464FF0000800243046FFF7E4FF46
:107FE0000446042C3ED20FB3012F02D0022F38D109
:107FF00030E004EB4400214911F8008004EB440018
:108000000844407850B11E4A4FF480411D48006832
:10801000FEF7B2FF05460DB91948067004EB44009F
:10802000164908448078184908551AE01548006830
:10803000FEF7BDFF1448005D04EB44010F4A1144F4
:108040008978884205D104EB44001146084490F831
:10805000028006E004EB44000849084490F80180DF
:1080600000BF00BFB8F1000F06D00848006818B183
:108070004046064909688847BDE8F081A8330020DA
:108080001C2B00209CE402001D2B0020182B00203C
:1080900030B503460020042B23D2012A07D1012941
:1080A00003D103F10E04E4B200E00024224679B1CA
:1080B000012902D0022911D104E003EB43040A4D47
:1080C0002A550DE003EB4304074D2C44627007E092
:1080D00003EB4304044D2C44A27001E0072000BFD1
:1080E00000E0072030BD0000A833002070B5044632
:1080F00000250548007800F0010018B1204600F086
:108100005BF80546284670BD102B00202DE9F04194
:1081100005460F4600241F4805601F48076005F00C
:10812000020000B3002606E0012211463046FFF7A8
:10813000AFFF0446761C042E01D2002CF4D034B9D3
:1081400040F2333204211548FEF7D2FD044614B93B
:10815000FEF7B8FD04462CB9114A00211148FEF77C
:10816000C5FE044600BF05F0010080B10120FFF705
:108170009DFE2CB90C4A00210C48FEF7B7FE0446C0
:108180002CB90B4A01210B48FEF7B0FE04462046ED
:10819000BDE8F081102B0020182B0020A0E4020085
:1081A000998602009CE402004597020094E40200D4
:1081B000B96C020098E402002DE9F047044600265D
:1081C0000025DA48007820B10020D849087001F075
:1081D000A5FA182C7ED2DFE804F00C16174A7EB2FE
:1081E000F6F4F3F2F1F0EFEEEDECEBEAE9E8E7E6B6
:1081F000E5E401F093FACE480068FEF7D8FE0646A3
:10820000CC4804708DE100BF0020FFF789FE58B113
:108210000020FFF771FE022C02D14FF4E16001E073
:108220004FF47A60054609E00020FFF76FFE022C4C
:1082300001D1C82001E04FF4C8700546BD48047064
:108240004FF40040A5FB00104FF47A73CF1840F1B3
:1082500000015A0000233846FEF7C4F88146002288
:108260004946B3480068FEF787FE064659E10020FC
:10827000FFF756FE58B10020FFF73EFE032C02D157
:108280004FF4487001E04FF47A60054609E00020A1
:10829000FFF73CFE032C01D1C82001E04FF4C87069
:1082A0000546A44804704FF40040A5FB00104FF4AD
:1082B0007A728F1840F10001520000233846FEF711
:1082C00091F881460022494699480068FEF754FE1D
:1082D000064626E124E10020FFF722FE58B10020E7
:1082E000FFF70AFE042C02D14FF47A6001E04FF44C
:1082F0007A6005460AE00020FFF708FE042C02D150
:108300004FF4C87001E04FF4C87005468948047006
:108310004FF40040A5FB00104FF47A73CF1840F1E2
:1083200000015A0000233846FEF75CF8814600221F
:1083300049467F480068FEF71FFE0646F1E0002030
:10834000FFF7EEFD50B10020FFF7D6FD052C01D15F
:10835000C82001E04FF47A60054609E00020FFF7ED
:10836000D5FD052C01D1C82001E04FF4C8700546A9
:10837000704804704FF40040A5FB00204FF47A735E
:10838000D71840F100015A0000233846FEF72AF8BA
:1083900081460022494666480068FEF7EDFD064624
:1083A000BFE0B8E0B6E0AAE0A1E098E092E05FE0CC
:1083B0005DE05BE059E057E051E042E033E024E06B
:1083C00015E00EE0FFE70020FFF77EFD594804703E
:1083D000002240F2666156480068FEF7CDFD064671
:1083E0009FE00020FFF792FD5248047099E00120C1
:1083F0004E490870FFF768FD002240F266614C4864
:108400000068FEF7B9FD06468BE001204749087079
:10841000FFF75AFD00224FF4005145480068FEF76F
:10842000ABFD06467DE0012040490870FFF74CFD9A
:10843000002240F266613E480068FEF79DFD064658
:108440006FE0012039490870FFF73EFD00224FF42C
:10845000005137480068FEF78FFD064661E0FFF7E0
:1084600099FD344804705CE000BF00BF00BF00BF4E
:1084700031480068FEF79BFD0646C4F1110515B3AF
:108480000EBB012D18D9A8B2C82148434FF40041B2
:1084900080FB01104FF47A728F1840F100015200F6
:1084A00000233846FDF79EFF8146002249462248B8
:1084B0000068FEF761FD06460220FFF727FD012058
:1084C0001E49087005E00220FFF716FD00201B4939
:1084D000087026E001F022F91648047021E001F04E
:1084E0001DF90020FFF712FD1248047019E001F099
:1084F00015F90120FFF70AFD0E48047011E001F0A4
:108500000DF90020FFF702FD0120FFF7FFFC0948ED
:10851000047006E000BFFFF73DFD0648047000E070
:1085200000BF00BF3046BDE8F08700000D2B0020E3
:1085300094E402000C2B002098E40200142B00208D
:108540002DE9FC4704460D461646A71C4FF00108CE
:108550000020019001A8FEF703FE30484068286023
:108560002E4840682D498968411A2D480068401CF2
:10857000A0EB010915E001212A4801F078FD01F086
:108580001BF982465146274801F071FD2348406897
:1085900022498968411A22480068401CA0EB010961
:1085A00000BF4F45E7D8B8F1000F30D0002100914F
:1085B00076B1009921F00301491C0091009921F046
:1085C0000401091D0091009964F3891100910DE0E7
:1085D000009921F00301891C0091009921F0040108
:1085E000091D0091009964F39F5100910B4949685E
:1085F0000B4A12681140094A0C3202EB81000099C3
:1086000001600649496839440C3A516000BF9DF841
:108610000400FEF7ABFD4046BDE8FC87D0370020E4
:10862000D02B0020EC3B002070B504460D460A2DEF
:1086300003D10D212046FFF7F7FFA168481CA06079
:1086400020684554D4E90110884202D3204601F045
:10865000D6FF70BD0448806803494968884201D14B
:10866000012070470020FCE7D0370020024600219F
:1086700008E0074B1B6803EBC1000378934200D16D
:108680007047491C034800788142F2DB0020F7E77D
:10869000482B00204C2B002010B5044620780221E6
:1086A000FFF794FC10BD00004FF0FF31054A42F87F
:1086B0002010082804DBFF23A0F108015032535496
:1086C00070470000B83400200146024850F82100ED
:1086D00070470000B83400202DE9F04F03460C46E7
:1086E0004FF0FF390AB1002000E0082084460AB1AB
:1086F000082000E00C208046614624E0154850F830
:108700002100401CF0B91D460846274616464FFA80
:1087100080FBDFF840A00AF1300A0AF805B0DFF864
:1087200034A04AF820704EB94FFA85FBA0F1080A30
:10873000DFF820E00EF1500E0EF80AB000BF4FFA3D
:1087400081F902E0491C4145D8D300BF4846BDE845
:10875000F08F0000B83400200146014840567047B1
:10876000E834002070B590B006460C461546A07857
:1087700018B901208DF80E0002E0A0788DF80E00E7
:108780002088ADF80C0000200290607C02A904F063
:1087900073FFA07C0DF1090104F06EFFE07B08B1CE
:1087A000012000E000209DF80A1060F3C3018DF85D
:1087B0000A10207C08B1012000E000209DF80A107A
:1087C00060F304118DF80A10207B08B1012000E04D
:1087D00000209DF80A1060F300018DF80A10207D3A
:1087E00008B1022000E001209DF80A1060F3420168
:1087F0008DF80A101C2109A8FDF751FE607BC0F31B
:10880000001018B9607BC0F34010F8B10020009050
:10881000E07C0DF1010104F02FFF00BF9DF8000086
:1088200020F00F00401C8DF800009DF8000020F0A3
:10883000F00010308DF8000000BF9DF8020020F01D
:108840000600801C8DF80200CDF838D0607B8DF8D2
:108850002400A07B8DF82500142104A8FDF71FFE3D
:1088600003A8049002A80590A088ADF81C00A06899
:1088700020B1E088ADF81800A0680890A069002831
:1088800049D000200190A0690088ADF82C00A069B3
:108890004088ADF82E00A06940680A9001A80D90AC
:1088A000A169087B01A904F0E7FEA169487B0DF1ED
:1088B000050104F0E1FEA069807A08B1012000E022
:1088C00000209DF8061060F3C3018DF80610A06922
:1088D000C07A08B1012000E000209DF8061060F386
:1088E00004118DF80610A069007A08B1012000E09B
:1088F00000209DF8061060F300018DF80610A069B5
:10890000807B08B1022000E001209DF8061060F392
:1089100042018DF80610E06908B1E0690C902B4621
:1089200004AA09A93046AADF10B070BD70B505468B
:108930000DB9094C01E0084C083409E0204600F06C
:10894000C3FE064606B904E028467168884700BFA2
:10895000F4E700BF70BD0000AC34002010B5044641
:108960002CB90120064948700020FFF7DFFF012CD9
:1089700004D1012002498870FFF7D8FF10BD000024
:10898000A43400202DE9F047024613468C46D3E973
:108990000245DCE90267B6EB040877EB050002D379
:1089A0000120BDE8F0870020FBE701468878012818
:1089B00005D191F82000012801D100207047886A74
:1089C000042802D0486A042801D10020F6E70120DB
:1089D000F4E733B58BB00546002000900C9878B1D1
:1089E00000240BE021460CA801F015FB28B1009AE9
:1089F000501C009001A820F81240641C142CF1D3E4
:108A00002C2269462846FDF731FD0DB030BD0146E8
:108A10000888062808DB0888B0F5486F06DD088856
:108A20004FF6FF72904201D0072070474888062811
:108A300008DB4888B0F5486F06DD48884FF6FF72BE
:108A4000904201D00720F0E708884FF6FF7290426D
:108A500008D04888904205D008884A88904201DDB5
:108A60000720E2E70020E0E72DE9F04107460D4648
:108A7000144698462088801D404502D90C20BDE848
:108A8000F0813846FFF7C3FF064600BF304600B10D
:108A9000F5E700BF0520218868542088401C20800D
:108AA0001220218868542088401C20802288511977
:108AB000388805F073FB21880844208022885119EA
:108AC000788805F06BFB2188084420800020D6E7D9
:108AD00010B5044600BF2046FEF7C0F900BF10BD28
:108AE00030B587B01C216846FDF7D9FC0020009006
:108AF0004FF4A03001904FF4F020029003208DF845
:108B00000C000020ADF80E008DF81000094805900B
:108B1000094806906846FEF79FFE044600BF2546BA
:108B200025B100BF2846FEF799F900BF00BF07B086
:108B300030BD0000F9C40200D18A0200F8B5054634
:108B40000C46607A88B9207A10B91048476801E06D
:108B50000E4887682A4639466068FEF70DFA0646D1
:108B600016B1304604F028FC0EE0002020720748C1
:108B7000406948B101208DF80000ADF8025003486B
:108B800041696846884700BFF8BD00000C340020EA
:108B90002DE9FF4105460C46002002900390ADF8F8
:108BA0000840ADF80A40009001906A4602A92846A4
:108BB00090DF0646002E32D0304602F011FF074605
:108BC00019491A4A891AC908012242EA01403B465A
:108BD0002A46174902F0D2F9BDF8000010B9BDF8D5
:108BE000020068B1BDF80230BDF800200E490F4FF9
:108BF000C91BC908012747EA01400EA102F0BEF9CE
:108C0000BDF8040058B1BDF804200749074BC91A44
:108C1000C908012343EA0140164902F0A3F930468E
:108C200004B0BDE8F081000038F0020038F0020026
:108C3000A0E80200546865207265717565737465FB
:108C4000642054582F5258207061636B6574206CF7
:108C5000656E67746820697320746F6F206C6F6E27
:108C6000672062792025752F2575206F63746574E0
:108C7000732E0000ECE802002DE9F041804600244C
:108C800014E01248006800EBC405287803F048F8A7
:108C900007466878012800D100E00020784080F085
:108CA00001062878314600F0CDF9641C08480078A8
:108CB0008442E6DB0748D0E90010002359405840C1
:108CC000014301D004F0EAFEBDE8F081482B00200A
:108CD0004C2B0020582B002010B50021034801F038
:108CE000E7F9044684F3100010BD0000EC3B0020BF
:108CF00070B505460C464FF4803000FA04F1284662
:108D000000F085F970BD70B505460C464FF4A070B3
:108D100000EB840086B23146284600F00BFA70BDA5
:108D20002DE9F04704460D4616461F464FF48030A5
:108D300000FA05F84FF4A07000EB85001FFA80F9E7
:108D400026F07F464146206802F068FB41462068D5
:108D500002F05EFB4946206802F053FB324629468A
:108D6000206802F045FB4146206802F054FB1FB129
:108D70004146206802F055FBBDE8F08710B5044677
:108D8000206802F03AFB10BD2DE9F04704460D467D
:108D900017466079324941F820706079314901EB1A
:108DA000C000007968B108262F49304A891AC908DD
:108DB000022242EA01402EA102F0CAF83046BDE884
:108DC000F08729882068C0F8081500BF94F90420AE
:108DD000AB7810461946002808DB4FEA417C4FEA81
:108DE0001C68DFF8B0C00CF800800BE04FEA417C53
:108DF0004FEA1C69DFF8A0C000F00F08A8F10408D2
:108E00000CF8089000BF00BF94F904100846002831
:108E10000DDB00BF00BF00F01F0301229A40430991
:108E20009B0003F1E023C3F8002100BF00BF00BF97
:108E300000BF012061790B4A02EBC1010871607922
:108E4000114641F8304000260749084A891AC908E6
:108E5000032242EA014011A102F07AF83046AEE75F
:108E6000902B0020942B002078F0020038F00200B4
:108E700052544320696E7374616E636520616C7235
:108E80006561647920696E697469616C697A656489
:108E90002E00000000E400E018ED00E05254433AD8
:108EA00020696E697469616C697A65642E000000DE
:108EB00010B5014691F90400002807DB00F01F03FC
:108EC00001229A40024B440943F8242000BF10BD00
:108ED00000E200E070B505460C4622460221284615
:108EE00000F0A1F870BD10B504464FF48271204621
:108EF00000F020F910BD10B504460021206802F0F2
:108F000093FA10BD10B504460421206802F08CFAD3
:108F100010BD2DE9F84F04468846154699464FF492
:108F2000803000FA08FA4FF4A07000EB88001FFAB6
:108F300080FB25F07F455146204600F068F8206808
:108F400002F05BFA06464146206802F04BFA0090B8
:108F500032464146206802F04BFA5946206802F03A
:108F600050FA3146009804F0F3FC012806D1102095
:108F700002F0EAFD5946206802F043FA206802F048
:108F80003CFA06463146284604F0E2FC07465146C4
:108F9000206802F040FA012F0FD16A1C4146206878
:108FA00002F026FA102002F0CFFD206802F025FA28
:108FB000B04225D00D20BDE8F88F2A4641462068F2
:108FC00002F016FA206802F018FA0646681E3146CA
:108FD00004F0BEFC07466FF07F40A0EB0900B842EA
:108FE00001D20D20E7E75FB96A1C4146206802F014
:108FF000FFF9206802F001FAB04201D00D20DAE753
:1090000001225146204600F00EF80020D3E770B54B
:1090100004460D462946206802F0FAF929462068E0
:1090200002F0FCF970BD70B504460E461546314697
:10903000206802F0F0F91DB13146206802F0F1F924
:1090400070BD0000F8B505460C46284604F0A8FBA4
:1090500005286AD2DFE800F003212A393F00DCB19D
:109060000121284604F0ACFB002000906846FEF782
:1090700077F82A460126002730463946FDF7E3F9FE
:109080002B4AD2E9003218431143294A03C29DF802
:109090000000FEF76BF800BF47E00CB1022000E0D3
:1090A00000200146284604F08BFB3EE044B103213A
:1090B000284604F085FB0121284605F030F903E03D
:1090C0000121284604F07CFB2FE01CB9042128462E
:1090D00004F076FB29E024B10321284604F070FB5C
:1090E00022E00021284604F06BFB0021284605F011
:1090F00016F9002000906846FEF732F82A4601264D
:10910000002730463946FDF79EF90A46C143D04351
:10911000074B0CCB11401840054AC2E900109DF8DE
:109120000000FEF723F800BF00BF00BFF8BD00003D
:10913000582B002070B505460C462868015929B106
:109140002146286802F05DF9012070BD0020FCE78F
:1091500070B504460D462A460021204600F00EF860
:10916000A068401CA06070BD01468A68C868801A6B
:10917000704701468A68C868801A704710B58368CE
:109180000B44848823400468E35C137010BDC268FC
:1091900083881A4003689954C268521CC2607047A1
:1091A00070B505460E46144624B13146284600F0F7
:1091B00041FF03E03146284600F01EFF70BD30B588
:1091C00004461088C01C984201D90C2030BD0220F2
:1091D000158848551088401C108001201588485576
:1091E0001088401C108015884C551088401C108039
:1091F0000020EBE770B504460D4640F21442115BC7
:109200000122D4F81004FEF785F9064606B1357040
:1092100004F13C0204F5826104F1540072DF70BD78
:109220003EB500BF9DF8000020F00F00401C0090EC
:109230009DF8000020F0F0001030009000BF0C22DC
:10924000144968467CDF044600BF254625B100BFAF
:109250002846FDF703FE00BF00BF002001900290EA
:109260005020ADF80400A020ADF806000020ADF8B5
:1092700008004FF4C870ADF80A0001A87ADF044670
:1092800000BF254625B100BF2846FDF7E7FD00BF1A
:1092900000BF3EBD68E4020070B505460C4660881C
:1092A0000D490988884215D1208840F677218842E7
:1092B00010D1A088C01E094908800949094A891AA5
:1092C000C908032242EA014004490B880A8806A122
:1092D00001F054FE70BD0000082B0020042B00207C
:1092E00090F0020038F0020044617461206C656EF9
:1092F0002069732073657420746F20307825582896
:109300002564290070B50E490E4800F079FF044627
:1093100000BF254625B100BF2846FDF79FFD00BFD1
:1093200000BFF721074800F05CFF044600BF254658
:1093300025B100BF2846FDF791FD00BF00BF70BDFD
:10934000999202001C2C002070B50B48FFF716FD07
:109350000A4B0CCB841843F10005094903C9201AB4
:1093600075EB010004D24FF08073E41845F100055D
:109370002046294670BD0000602B0020702B002085
:10938000782B00202DE9F04104468846E0B2FFF733
:109390006DF90546287802F0C3FC07466878012875
:1093A00000D100E00020784080F001064EB1064870
:1093B000D0E90010002359405840014301D104F086
:1093C0006DFBBDE8F0810000582B002010B501F0C6
:1093D00031FC08B901F0BAFF10BD000002460021BF
:1093E0000CE001EB8100074B33F82000904204D1E0
:1093F00001EB810003EB80007047491C0029F0D08D
:109400000020F9E7F83300202DE9FC5F83460E4683
:1094100091461F46DDE90C45002E01DA704200E05E
:10942000304682464FF0010803E09AFBF9FA08F152
:109430000108CA45F9DA474500D9B84634B1002ECB
:1094400003DB05F00400042800D1641E05F00200CF
:1094500000B167B105F0010048B944B104E0641EF1
:1094600020215846FFF7E0F80CB1A045F7D3002EB5
:1094700005DA76422D215846FFF7D6F807E005F0C9
:109480000400042803D12B215846FFF7CDF805F03E
:10949000020002280DD105F0010050B94FB944B1C6
:1094A00004E0641E30215846FFF7BEF80CB1A04519
:1094B000F7D33B464A4631465846CDE9004504F0CD
:1094C00073FEBDE8FC9F00002DE9F04104460E4606
:1094D0004FF48E71206802F09EFA4FF4A27120685A
:1094E00002F099FA1A49206802F0A4FA206802F002
:1094F0003FFB0546374628463946002804DB4A0725
:10950000130E144A135408E04A074FEA126C124A29
:1095100000F00F031B1F02F803C000BF00BF20684C
:1095200002F026FB0546284600280DDB00BF00BFE1
:1095300000F01F02012191404209920002F1E02255
:10954000C2F8001100BF00BF00BF00BFBDE8F0813E
:109550008000020000E400E018ED00E02DE9F04199
:1095600004460E464FF48871206802F084FA4FF4E6
:109570009071206802F07FFA4FF49271206802F037
:109580007AFA4FF4A271206802F075FA4FF4AC71C8
:10959000206802F070FA1B49206802F07CFA20680B
:1095A00002F0EAFA0546374628463946002804DB29
:1095B0004A07130E144A135408E04A074FEA126C84
:1095C000124A00F00F031B1F02F803C000BF00BFC8
:1095D000206802F0D1FA0546284600280DDB00BFBE
:1095E00000BF00F01F02012191404209920002F1E8
:1095F000E022C2F8001100BF00BF00BF00BFBDE8FD
:10960000F08100001003420000E400E018ED00E0EB
:1096100030B5024600201378C3F38003D3B113782A
:1096200003F00303012B02D0022B10D107E01388B3
:10963000C3F383139B1C0C6823440B6008E00B6886
:109640000225146805EB945423440B6000E000BF2E
:1096500000BF012030BD2DE9F0410446A08800EB99
:10966000020CB4F80480904501DD104600E0A088AB
:10967000A8EB0005E088C618B4F80680984501DD1F
:10968000184600E0E088A8EB00074888B4F800809E
:10969000404504DB4888B4F80280404502DD0020E4
:1096A000BDE8F0818888A84202D38888604501D946
:1096B0000020F5E7C888B84202D3C888B04201D973
:1096C0000020EDE70120EBE70146086808B10268D9
:1096D0000A60704710B5044622460121002001F0BF
:1096E0002FF9002105E054F8210008B1012010BD38
:1096F000491C0029F7D00020F9E770B500210120AE
:10970000FEF704FD044600BF254625B100BF2846EC
:10971000FDF7A4FB00BF00BF70BD000010B50848F6
:10972000007850B1002405E0022C02D02046FEF75C
:10973000E3FB641C042CF7D301E0FEF721FC10BD11
:10974000142B002010B504460448007800F00100F6
:1097500018B103480078FEF72FFD10BD102B002034
:109760000C2B002010B502F0B3F920B902F0D6F9A5
:1097700000200149887010BDA4340020F721018029
:10978000172141800021017141711B218171C1713B
:10979000704770B54FF48041002001F05DFC044635
:1097A00000BF254625B100BF2846FDF757FB00BF87
:1097B00000BF01F02BFA70BD2DE9FF4100272E48B4
:1097C00000F04EFC2C48001F00F04AFC2B4880683B
:1097D00003902B4805680398284028490C3101EB79
:1097E000800800BF03A94046FFF712FF30B103987D
:1097F000284022490C3101EB800800E000E0F1E74D
:1098000000BF00240AE00398411C284003911B4933
:109810000C3151F820004DF82400641C022CF2D3C6
:10982000009800F0030001280DD0022814D1BDF8E3
:1098300006700421009801EB9050401E039901EB43
:109840009000039009E0BDF806700098C0F3831003
:1098500003990844039000E000BF00BF0648001FC2
:1098600000F0F7FB064616B10449039888603846B5
:1098700004B0BDE8F0810000E83B0020D0370020B4
:10988000D02B0020FFF785FF04F090F904F016F9C3
:10989000FFF733FF03F0C8FAFEF7E1F9FFF7C0FC6A
:1098A000FFF730FD03F034FEFDF7BCF9FFF718F9C0
:1098B0000D490E4A891AC908032242EA01400CA147
:1098C00001F046FB0849094A891AC908032242EAFD
:1098D00001400FA214A101F045FBFDF7DBF901E007
:1098E000FFF774FDFCE7000090F0020038F0020082
:1098F000424C452054656D706C61746520657861DB
:109900006D706C6520737461727465642E00000064
:10991000562D487730312E30312E30302D4677306D
:10992000312E30302E30310050524F4A4543545F73
:1099300053575F56455253494F4E203A20257300E6
:109940002DE9F04105460E4614469846A888871C26
:109950002088801C3844404502D90C20BDE8F081A5
:10996000FE2F01D90C20F9E7781C2188705420883B
:10997000401C2080FF20218870542088401C2080BB
:1099800022889119288804F009FC21880844208045
:10999000A88800280DDDA86808B90720DEE7AA8896
:1099A00023889819A968FCF761FD2088A9880844D4
:1099B00020800020D2E72DE9FF4F87B00446914672
:1099C0001E46A2462546BAF806009AF805104843F6
:1099D000001F0690BAF806B0301DB0FBFBF00590F2
:1099E000301DB0FBFBF10BFB11000490D9F8000017
:1099F00081190698814202D90698801B01E0D9F8A6
:109A000000000746C9F8007003E02D680598401E65
:109A1000059005980028F8D103900498ABEB000856
:109A2000B84501D9384600E04046804623E0039916
:109A3000089808440290281D04990844019014983D
:109A400028B14246DDE90110FCF710FD04E0424672
:109A5000DDE90101FCF70AFD002004902D68A7EB69
:109A60000807039840440390BB4501D9384600E0FD
:109A70005846804600BF002FD9D10BB0BDE8F08F0B
:109A800070B503460C469CB101F00AFB0546002266
:109A90000AE0084800EB820108881E68B04202D143
:109AA0001A60002070BD521CAA42F2D30520F9E7CB
:109AB0000020F7E700000000F7B50546164600BF96
:109AC000334601AA29461048FEF7F4F80446082C4C
:109AD0000CD0132C0AD0052C08D000BF274627B184
:109AE00000BF3846FDF7BAF900BF00BF132CE7D01E
:109AF0000649074A891AC908032242EA0140224658
:109B000004A101F02FFAFEBDE42A002090F002002B
:109B100038F002006D7920626C652073656E6420F8
:109B200072657475726E203A2025640D0A0000007B
:109B30002DE9F84F05460F46144698462878012827
:109B400004D1687810B90720BDE8F88F2088801C00
:109B5000404508D82878012807D12088801C6978DA
:109B60000844404501D90C20EEE72088A8EB00000E
:109B7000801E86B200962188891CC81969467DDF3F
:109B8000814600BF484600B1DEE700BF28780228C2
:109B900004D06878BDF80010884206DBBDF80000EC
:109BA000B04202DC4FF0090A0BE04FF0080A2878B7
:109BB000012805D16878B04202DC6878009000E0A6
:109BC0000096BDF80000FE2801D90C20BCE7BDF8C6
:109BD0000000401C218878542088401C2080208868
:109BE00007F800A02088401C20802088BDF80010C5
:109BF000084420800020A7E714480068401C38B9BA
:109C000013480178124808300078C0F3031205E0C9
:109C10000E4801684FF08050D0F83421062912D147
:109C2000032A06D0042A06D0052A06D0062A08D11F
:109C300005E0012070470120FCE70120FAE7012040
:109C4000F8E70120F6E70020F4E7000030010010FB
:109C5000E00F00F014480068401C38B91348017840
:109C6000124808300078C0F3031205E00E4801687E
:109C70004FF08050D0F83421062912D1032A06D0A3
:109C8000042A06D0052A06D0062A08D105E00120BC
:109C900070470120FCE70120FAE70120F8E70120E6
:109CA000F6E70020F4E7000030010010E00F00F0BC
:109CB00014480068401C38B913480178124808302D
:109CC0000078C0F3031205E00E4801684FF08050A1
:109CD000D0F83421062912D1032A06D0042A06D04E
:109CE000052A06D0062A08D105E001207047012088
:109CF000FCE70120FAE70120F8E70120F6E7002061
:109D0000F4E7000030010010E00F00F00E48027888
:109D10000D4808300078C0F30311062A12D1032938
:109D200006D0042906D0052906D0062908D105E069
:109D3000012070470020FCE70020FAE70020F8E748
:109D40000020F6E70020F4E7E00F00F00E4802687C
:109D50004FF08050D0F83411062A12D1032906D0D2
:109D6000042906D0052906D0062908D105E00020DF
:109D700070470020FCE70020FAE70120F8E7012007
:109D8000F6E70020F4E700003001001014480068F6
:109D9000401C38B913480178124808300078C0F3E5
:109DA000031205E00E4801684FF08050D0F83421CE
:109DB000062912D1032A06D0042A06D0052A06D085
:109DC000062A08D105E0012070470120FCE70120A8
:109DD000FAE70120F8E70120F6E70020F4E70000A9
:109DE00030010010E00F00F00E4802780D480830F6
:109DF0000078C0F30311062A12D1032906D00429E2
:109E000006D0052906D0062908D105E001207047B3
:109E10000020FCE70020FAE70020F8E70020F6E742
:109E20000020F4E7E00F00F014480068401C38B947
:109E300013480178124808300078C0F3031205E097
:109E40000E4801684FF08050D0F83421062912D115
:109E5000032A06D0042A06D0052A06D0062A08D1ED
:109E600005E0012070470120FCE70120FAE701200E
:109E7000F8E70120F6E70020F4E7000030010010C9
:109E8000E00F00F00E4802780D4808300078C0F36B
:109E90000311062A12D1032906D0042906D0052968
:109EA00006D0062908D105E0012070470020FCE714
:109EB0000020FAE70020F8E70020F6E70020F4E7AA
:109EC000E00F00F00E4802780D4808300078C0F32B
:109ED0000311062A12D1032906D0042906D0052928
:109EE00006D0062908D105E0012070470020FCE7D4
:109EF0000020FAE70020F8E70020F6E70020F4E76A
:109F0000E00F00F014480068401C38B9134801788D
:109F1000124808300078C0F3031205E00E480168CB
:109F20004FF08050D0F83421062912D1032A06D0F0
:109F3000042A06D0052A06D0062A08D105E000200A
:109F400070470020FCE70120FAE70120F8E7012034
:109F5000F6E70020F4E7000030010010E00F00F009
:109F600010B5044609B90E2010BD92FBF3F003FBB7
:109F7000102008B10920F7E7216000206060A06090
:109F8000A281E38100BFEFE770B504460D46294684
:109F90002046FCF73FF918B12A882168881870BD5F
:109FA0000020FCE770B505460C4620886188884291
:109FB00004D12846FCF770F9012070BD0020FCE7B1
:109FC00070B504460D4629462046FCF748F918B1FD
:109FD0006A882168881870BD0020FCE770B50546C6
:109FE0000C4620886188884204D12846FCF72EF967
:109FF000012070BD0020FCE770B505460C4604F05A
:10A000001F0301229A40D143620905EB820000F050
:10A0100039F8064670BD10B50246480952F82000CE
:10A0200001F01F040123A340184008B1012010BD16
:10A030000020FCE770B505460C4604F01F03012222
:10A0400002FA03F1620905EB820000F03CF80646D3
:10A0500070BD10B504460021204600F01EF810BD6A
:10A0600010B504460121204600F02DF810BDF8B5CA
:10A0700004460D466A4629462046FCF762F9064624
:10A080000098F8BDF8B504460D466A4629462046B4
:10A09000FCF73DF906460098F8BDF8B504460D46B4
:10A0A0006A4629462046FCF732F906463046F8BD96
:10A0B000F8B504460D466A4629462046FCF70EF9D7
:10A0C00006463046F8BDF8B504460D466A462946B0
:10A0D0002046FCF70FF906460098F8BDF8B504468F
:10A0E0000D466A4629462046FCF738F90646009890
:10A0F000F8BDF8B504460026002000906846FDF73C
:10A100002FF8206800686168884215D920680068C7
:10A11000401E226810600178204600F033F80646A1
:10A12000207A21680978401AC5B220680079A842CF
:10A1300001DA2068057100BF9DF80000FDF716F8F0
:10A140003046F8BD0246D068081A138AB0FBF3F017
:10A15000C0B27047F8B504460D462E460020009068
:10A160006846FCF7FDFF31462046FFF7EBFF21680C
:10A170000A68511C2368196010709DF80000FCF7F4
:10A18000F5FFF8BD0246138AD06801FB0300704753
:10A1900010B5014600BF09B90E2010BD00BF087AF6
:10A1A0000B79C01AC2B2D1E90030186005E0086826
:10A1B0000368581C0C6820601A70101EA2F101037D
:10A1C000DAB2F4D10B68187100BFE6E730B5024689
:10A1D0000B46D40802F00702012090401D5D284084
:10A1E00030BD024600BF0AB90E20704700BF1729D4
:10A1F00001DBF72901DD0720F7E711800020F4E7F4
:10A2000070B504460E4600BF0CB90E2070BD00BFED
:10A210002661F720208060801B202071002505E04A
:10A22000A11D01EBC500FFF7A9FA6D1C002DF7D0A9
:10A230000020EBE72DE9F047064688464546B488FE
:10A24000012C01DBBDE8F0873088242820D006DC13
:10A25000102809D011280CD0232823D11DE03A283A
:10A260000CD055281ED10EE03146284602F01CFACB
:10A2700019E03146284602F0EDFA14E0314628464E
:10A2800002F056FB0FE03146284602F0EDFA0AE0F4
:10A290003146284602F06AFA05E03146284602F0C7
:10A2A0008FFA00E000BF00BFA81D00EBC4000079DA
:10A2B00018B3A81D30F834102046A5DF074657B95B
:10A2C0000021A81D00EBC40001710121A81D00EBB5
:10A2D000C400417110E0112F0ED0384601F080FB10
:10A2E00081460749074A891AC908012242EA014002
:10A2F0004A4605A100F036FE00BF00BFA2E70000FD
:10A3000038F0020038F0020073645F626C655F67CA
:10A31000617474635F65786368616E67655F6D74AF
:10A32000755F72657175657374282920726574751F
:10A33000726E65642025732E00000000024600BF87
:10A340000AB90E20704700BF00BF1078DE2801D088
:10A350000820F7E700BF51800020F3E7024600BF66
:10A360000AB90E20704700BF00BF09B90E20F9E7F7
:10A3700000BF1078DE2801D10820F3E7086850609C
:10A38000DE2010704FF6FF7050800020EAE770B5B5
:10A3900004460E4600BF06B970BD00BF00BF04B939
:10A3A000FAE700BF354600BF2878DE2800D0F3E783
:10A3B00000BFA0886988884202D1284603F099FF2F
:10A3C0002088012806D0022809D0112811D0512850
:10A3D00017D109E0211D284602F090FB12E0211D53
:10A3E000284602F08AFB0DE0211D284602F030FBD2
:10A3F00008E0A0886988884202D14FF6FF70688023
:10A4000000E000BF00BF00BFC6E701464FF080403C
:10A41000405808B1012070470020FCE708B5002231
:10A420004FF080410A500958009100BF08BD00005C
:10A4300001490860704700000803004001229107AD
:10A440000A50704710B500240F48007808B18524E1
:10A4500011E000200C49886048600861C8600B4822
:10A4600001F04AFB044601F0F9F908B901F03AFBA2
:10A4700001200549087001F02BFB10B101200249B1
:10A480008870204610BD0000A43400205D890200C1
:10A4900008B5002000906846FCF762FE0748C068D7
:10A4A000401E0649C8600846C06808B9FFF75AF957
:10A4B0009DF80000FCF75AFE08BD0000A4340020FF
:10A4C0002DE9F04188B004460F46154626781A4813
:10A4D00040F826501949386941F82600787F184914
:10A4E0008855202239466846FBF7C0FF04964FF096
:10A4F000000820781249085C50B10DB1114800E005
:10A50000002002466946201D01F054FE80460EE000
:10A5100020780B49085C50B90DB10B4800E00020D1
:10A520000246694604F10C0001F00CFD80464046ED
:10A5300008B0BDE8F08100002C2B0020302B00205B
:10A54000342B002051DF0200C9DD02002DE9F0416B
:10A5500004460D461646002720780C49085C30B1A9
:10A5600032462946201D01F065FE07460AE02078A4
:10A570000649085C30B93246294604F10C0001F066
:10A5800025FD07463846BDE8F0810000342B002049
:10A590002DE9F04104460D461646002720780C4967
:10A5A000085C30B132462946201D01F0DFFE074627
:10A5B0000AE020780649085C30B93246294604F1A1
:10A5C0000C0001F095FD07463846BDE8F08100001B
:10A5D000342B00200FB438B50446059810B938BCA8
:10A5E0005DF814FB0020009006A800906A46204603
:10A5F000059900F012F80020009000BFEFE770B559
:10A600000446A06800B970BDD4E90403A2682168BB
:10A6100098470020A06000BFF5E72DE9FC5F824667
:10A620000D4614460DB9BDE8FC9F00BF2E786D1C89
:10A6300006B9E1E0252E70D100274FF0010900BFD7
:10A640002E782B2E0CD02D2E02D0302E0CD103E0E4
:10A6500047F001076D1C0AE047F002076D1C06E099
:10A6600047F004076D1C02E04FF0000900BF00BF77
:10A67000B9F1000FE4D14FF0000800BF2A2E06D137
:10A680002168081D2060086880446D1C0DE02E784C
:10A69000302E01DB392E00DD07E06D1CA6F1300005
:10A6A00008EB880100EB4108E8E700BF4FF0000B22
:10A6B0002E782E2E10D16D1C00BF2E78302E01DB8F
:10A6C000392E00DD07E06D1CA6F130000BEB8B018D
:10A6D00000EB410BF1E700BF2E7800BF6C2E01D0DC
:10A6E000682E02D16D1C2E7800E000E0F6E700BF76
:10A6F000692E21D008DC252E6DD0582E39D0632E3E
:10A700000CD0642E6CD116E0702E4CD0732E3ED03F
:10A71000752E1FD0782E63D12AE065E02168081DD0
:10A720002060D1F8009009F0FF0001905046019997
:10A73000FDF77AFF55E000BF2168081D2060D1F8C1
:10A7400000905B460A2249465046CDE90087FEF755
:10A750005BFE46E02168081D2060D1F800905B4652
:10A760000A2249465046CDE9008703F01DFD38E036
:10A7700000BF2168081D2060D1F800905B461022C0
:10A7800049465046CDE9008703F00EFD29E02168D7
:10A79000081D2060086801903B46424650460199DA
:10A7A00003F09CF81DE02168081D2060D1F800909E
:10A7B00030215046FDF738FF78215046FDF734FF31
:10A7C000002008210B461022CDE9001049465046D2
:10A7D00003F0EAFC05E025215046FDF725FF00E0E7
:10A7E00000BF00BF6D1C03E031465046FDF71CFF63
:10A7F000287800287FF41AAF00BF9AF80C0010B137
:10A800005046FFF7FCFE00BF0DE7F0B5DDE905455A
:10A8100000BF4FF0A0473E4641EA420747EA8307A0
:10A8200047EA042747EA054C06F5E06747F820C0E9
:10A83000F0BDF0B5DDE9054500BF4FF0A0473E464D
:10A8400041EA420747EA830747EA042747EA054CFB
:10A8500006F5E06747F820C0F0BDF0B5DDE9054535
:10A8600000BF4FF0A0473E4641EA420747EA830750
:10A8700047EA042747EA054C06F5E06747F820C099
:10A88000F0BDF0B5DDE9054500BF4FF0A0473E46FD
:10A8900041EA420747EA830747EA042747EA054CAB
:10A8A00006F5E06747F820C0F0BD7CB505460C46CC
:10A8B0000020009023460246014601902846FFF7FB
:10A8C000CCFF7CBD7CB505460C460020009023469D
:10A8D0000246014601902846FFF7D3FF7CBD1CB518
:10A8E00004460020009003460122114601902046B4
:10A8F000FFF7B3FF1CBD1CB50446002000900346C3
:10A900000122114601902046FFF7BBFF1CBD10B588
:10A910000A4600BF4FF0A043194601F5E06353F823
:10A92000203023F4403401F5E06343F8204053F82D
:10A93000203043EA024401F5E06343F8204010BDB3
:10A9400038B503460A4C2468009418460BE05DF8BD
:10A950002040D4F8204514605DF820501468C5F8F4
:10A960002045121D401C5C188442F0D838BD000000
:10A97000E8E4020001464A0900230AB95B1E00BF51
:10A9800000BF01F01F0101208840184008B10120DC
:10A9900070470020FCE7014600BF4FF0A040024690
:10A9A00000BFD2F81005C84000F00100704700BF9A
:10A9B0004FF0A0410A46012303FA00F1C2F808153E
:10A9C00000BF704700BF4FF0A0410A46012303FAC1
:10A9D00000F1C2F8081500BF704710B561B900BF9B
:10A9E00000BF4FF0A0421346012404FA00F2C3F85E
:10A9F0000C2500BF00BF0CE000BF00BF4FF0A0421D
:10AA00001346012404FA00F2C3F8082500BF00BF72
:10AA100000BF10BD01460148084470470060004077
:10AA200038B504462046FFF7F5FF002101602046B7
:10AA3000FFF7F0FF0068009000BF38BD10B5044676
:10AA40002046FFF7E7FF0068012800D110BD002075
:10AA5000FCE7000001490860704700000463004003
:10AA600070B504460E46FCF74BFC0546681C08B959
:10AA7000284670BDE8B2E168087100BF0C48D0F804
:10AA8000100430B90A48C0F810440020E16808609A
:10AA90000BE00748D0F81004C0680068E16808605F
:10AAA0000348D0F81004C06804602846E1E70000BD
:10AAB000D0370020704710B5FBF7EEFD10BD704792
:10AAC00038B504460D4604484023044A2946009000
:10AAD000204600F005F838BDF5D3020038360020D6
:10AAE0002DE9F04F93B082460E4617469846DDF8A2
:10AAF0007090304600F0CBFB18210DA8FBF7CFFC7F
:10AB00000D97CDF83880CDF8489000252B460822C7
:10AB100007A9304600F0D8FB082509980A90BDF82F
:10AB20002000ADF82C00BDF82200ADF82E0000206A
:10AB30008DF83100079800F0030001281BD1079819
:10AB40004FEA902B0798C0F3C2008DF830000798A9
:10AB5000C0F38314A2002B4601A9304600F0B4FBD9
:10AB600005EB84050DA80AAB224601A900905846C2
:10AB700000F0CCFA27E0079800F00300022822D169
:10AB800007984FEA905B0798C0F3C2008DF8300039
:10AB900000BFBBF1080F01D2584600E00820044670
:10ABA0002B46224605A9304600F08EFB2544ABEB30
:10ABB000040B0DAB0AAA214605A800F0EFF9BBF182
:10ABC000000FE6D100BF304600F06FFB13B0BDE8C8
:10ABD000F08F000010B502460B4C04EBC2030129B4
:10ABE00006D0022906D0032906D0042908D105E0A1
:10ABF000022007E0042005E0187903E0587901E01D
:10AC0000002000BF00BF10BD38F0020010B54FF0AB
:10AC1000FF34FFF750FF04210548FFF721FF0446EA
:10AC200000BF01200249C968487100BF10BD000083
:10AC300028F002002DE9F04F8BB0FDF70BFD18B1A5
:10AC400000200BB0BDE8F08F0020B749C1F8180410
:10AC500000BF00BF00BFBFF34F8F00BF00BF00BFEA
:10AC6000084680680A90B14804680A9820400C3170
:10AC700001EB800A002500260020069000BF0AA9EB
:10AC80005046FEF7C5FCA8B1A748D0F8180488B90B
:10AC9000A54840680A99884205D8A3484068A24957
:10ACA00088600020CDE70A9820409F490C3101EBD5
:10ACB000800A00E000E0E2E700BF00270BE00A980E
:10ACC000411C20400A9198490C3151F8200007A9F5
:10ACD00041F827007F1C022FF1D3079800F00300F2
:10ACE00002287CD10798800D059050210798B1EB80
:10ACF000905F02DD0798800D00E0502081460798A4
:10AD000069F39F50079009F1080004900798C0F379
:10AD1000C20006908648049900F05CFA0546002DB2
:10AD20005BD0284600F0B3FA3346082207A928462C
:10AD300000F0DBFA08360A982040611C081A4FEA36
:10AD40008008C14535D9B8F1000F06D00A982040D7
:10AD500075490C3101EB800001E073480C30039021
:10AD6000B8F1000F01D0404600E0484600F0FF0B6C
:10AD7000B8F1000F02D06C480C3000E000200290C7
:10AD8000B8F1000F02D0A9EB080000E00020C0B22B
:10AD9000019033465A462846039900F0A6FA5E44CD
:10ADA000029828B133462846DDE9012100F09DFADA
:10ADB0000CE00A9820405C490C3101EB800B3346D3
:10ADC0004A465946284600F090FA00BF0598C01C34
:10ADD0000A9901EB90000A9000BF44E0FFE7079852
:10ADE00000F0030001283ED10798C0F38310062825
:10ADF00003DA0798C0F3831000E00620079960F398
:10AE0000891107910798C0F3831000F10208079891
:10AE1000C0F3C20006904FEA8801454800F0DAF915
:10AE20000546FDB1284600F032FA3346082207A94C
:10AE3000284600F05AFA083600270EE00A98421C0D
:10AE400020400A92384A0C3202EB80013346042239
:10AE5000284600F04AFA361D7F1C0798C0F383107D
:10AE6000B842EBD800BFE5B32F48D0F81084D0F833
:10AE7000180418B1284600F018FA31E019E04FF034
:10AE8000000900BFD8F80C004079012800D18146A4
:10AE9000B9F1000F08D000BFD8F8000029460268B9
:10AEA0004046904700BF00BFD8F80C00D0F80080A3
:10AEB00000BFB8F1000FE2D1284600F0F6F90020FB
:10AEC000059005A8FCF74CF91748D0F8180410B9FC
:10AED00015490A9888609DF81400FCF747F900BFEF
:10AEE0001DE0FFE71048D0F810840AE0C146D9F809
:10AEF000000081684846884700BFD8F80C00D0F8A9
:10AF00000080B8F1000FF1D10A490B4A891AC9082B
:10AF1000022242EA014009A100F01AF800BFFDF741
:10AF200099FB80F001008CE6D0370020D02B002068
:10AF3000B0F0020090F0020038F002004261636B52
:10AF4000656E647320666C7573686564000000004C
:10AF500070B504460D4600231A462946204602F0E5
:10AF600085FC70BDF8B505460E46144600940123D5
:10AF70006A463146284602F079FCF8BD2DE9FC41CD
:10AF800006460F4614461D460094019502236A4664
:10AF90003946304602F06AFCBDE8FC812DE9F05FDD
:10AFA00007460E4690461D46082E01D9BDE8F09F83
:10AFB00095F80C90002028732946404601F042FF86
:10AFC00000240CE0B44205D23A5D1DA12846FFF7EB
:10AFD00001FB03E01CA12846FFF7FCFA641C082CC7
:10AFE000F0D31AA12846FFF7F5FA00241DE0B44279
:10AFF00016D217F804A0BAF17E0F09DCFBF732FA7B
:10B00000006810F80A0000F03E0008B1504600E069
:10B010002E2083465A460EA12846FFF7DBFA03E0AE
:10B020000CA12846FFF7D6FA641C082CDFD30122B6
:10B030002946404601F0D4FE85F80C9000BFB5E7E4
:10B040002025303278000000202020007C00000005
:10B0500025630000200000002DE9F04106460F4660
:10B0600000BF002009490870094800F018F904469B
:10B0700014B12046BDE8F081064800F0A5F9064865
:10B080000649401AC5080020F4E70000D037002028
:10B09000B0F0020068E70200B0F0020038F00200F1
:10B0A00002480349401AC00870470000B0F002008F
:10B0B00038F0020013B50C4621466846FEF7E0FC66
:10B0C00028B90448009A00EBC20108681CBD0020A2
:10B0D000FCE7000038F0020070B50B48D0F81044CF
:10B0E0000120094908700CE000BF0120E1684871A7
:10B0F00000BF2546286841682846884700BFE068A9
:10B100000468002CF0D170BDD03700202DE9FF4736
:10B1100007460C46164698460C9D95F80C90002064
:10B1200028732946404601F08DFE072E47D2DFE8FE
:10B1300006F004090F161F2A370039462846FFF784
:10B1400049FA3DE0394628462268FFF743FA37E0DE
:10B1500039462846D4E90023FFF73CFA30E0A068DE
:10B16000009039462846D4E90023FFF733FA27E058
:10B17000D4E90201CDE9000139462846D4E900238B
:10B18000FFF728FA1CE0D4E902122069CDE9001289
:10B19000029039462846D4E90023FFF71BFA0FE056
:10B1A000D4E90223D4E90410CDE90023CDE902104B
:10B1B00039462846D4E90023FFF70CFA00E000BF27
:10B1C00000BF00222946404601F00AFE85F80C9097
:10B1D000BDE8FF872DE9F84F07468A46388AA0F177
:10B1E00004080AF104004044401EB0FBF8F0C0B26D
:10B1F00000903846FEF77DFF044614B90020BDE8F4
:10B20000F88F0020207101216171A4F80680254685
:10B210000098A0F1010B2C462F604FF0000912E0BE
:10B220003846FEF766FF064636B16079401C60710D
:10B230002E603760354604E0204600F008F8002014
:10B24000DDE709F10109D945EAD32046D7E72DE921
:10B25000F05F0446274697F805802646A8F1010BC3
:10B26000002501E036686D1C5D45FBD3D6F800A0D3
:10B270002646002507E0D6F8009031465046FEF7F6
:10B2800069FF4E466D1C4545F5D3BDE8F09F70B58E
:10B29000044625460121281DFEF7E9FE70BD10B5C4
:10B2A00004462046FEF774FF10BDF8B50446264656
:10B2B0000121301DFEF712FF00906D46287810B96D
:10B2C0002046FFF7C4FFF8BD2DE9FC4105460E46B8
:10B2D00014461F46019401203B4601AA31460090C6
:10B2E0002846FEF768FBBDE8FC812DE9FC410546D8
:10B2F0000E4614461F46019400203B4601AA3146E3
:10B3000000902846FEF757FBBDE8FC8110B50020F1
:10B310000A49087000BF0A49086000BF00BF00BFAB
:10B3200000BFBFF35F8F00BF00BF00BF00BF054974
:10B33000054800F0C6FA002010BD00008C2B00204C
:10B34000882B0020BCE502000036002038B500BF85
:10B35000002000906846FBF703FF00BFF1EE100AE3
:10B36000044624F09F00E1EE100A00BF00BF00BFBA
:10B3700000BF00BFBFF35F8F00BF00BF00BF26202C
:10B38000002807DB00F01F0201219140094A430910
:10B3900042F8231000BF9DF80000FBF7E7FE00BF56
:10B3A00000F05CFA10B141DF044602E020BF40BF6C
:10B3B00020BF38BD80E200E010B5044600BF204643
:10B3C000FBF74CFD00BF10BD0021826891608268D0
:10B3D0001161826851618268D160826851608268BF
:10B3E00011607047024602F5A86050F821007047CE
:10B3F00000F5A86343F8212070470146D1F8040501
:10B40000704708B5002242504258009200BF08BD64
:10B41000C0F848137047C0F844137047C0F80813C9
:10B420007047C0F804137047012242507047000073
:10B43000014609B90E2070470248006808600020E4
:10B44000F9E70000F8E70200FEB506460C46204684
:10B45000FFF7EEFF05460DB12846FEBD0020009027
:10B46000019002908DF8006001208DF80200062105
:10B47000ADF8041069462020226869DF054675B1E1
:10B48000284600F0ADFA07464F49504A891AC908C4
:10B49000012242EA01403A464D49FFF763FD002090
:10B4A00000900190029001208DF8010000208DF89D
:10B4B00002008DF8030069464020226869DF0546D6
:10B4C00075B1284600F08CFA07463F493F4A891A71
:10B4D000C908012242EA01403A463E49FFF742FDCF
:10B4E00000200090019002908DF80060F720ADF8E8
:10B4F000020069462320226869DF054675B12846A7
:10B5000000F06EFA07463049304A891AC90801220C
:10B5100042EA01403A463049FFF724FD00200090FE
:10B520000190029001208DF800006946226869DFD1
:10B53000054675B1284600F053FA07462249234ACA
:10B54000891AC908012242EA01403A462349FFF715
:10B5500009FD00200090019002904FF4B06000902F
:10B560006946A120226869DF054675B1284600F0CA
:10B5700037FA07461449154A891AC908012242EACE
:10B5800001403A461649FFF7EDFC0020009001907B
:10B59000029001208DF800006946A020226869DF32
:10B5A000054675B1284600F01BFA07460649074ACA
:10B5B000891AC908012242EA01403A460949FFF7BF
:10B5C000D1FC002049E70000A0F0020038F00200A2
:10B5D0008CEE0200D4EE020020EF0200ECED02003F
:10B5E00038EE020098ED02002DE9F041044625688E
:10B5F000204660DF06462068A84225D91E491F4A1A
:10B60000891AC908022242EA01401DA1FFF7A0FCE5
:10B6100019491A4A891AC908022242EA01402A46EF
:10B6200023A12368FFF7AAFC01F06AFC2168471AEE
:10B630001149124A891AC908022242EA01403A46CF
:10B6400028A1FFF78FFC00E000BF1EB901203049A0
:10B6500008700EE0304600F0C3F907460649074A75
:10B66000891AC908012242EA01403A4629A1FFF796
:10B6700079FC3046BDE8F081A0F0020038F002000D
:10B68000496E73756666696369656E742052414DD3
:10B6900020616C6C6F636174656420666F722074E6
:10B6A000686520536F66744465766963652E000093
:10B6B0004368616E6765207468652052414D207350
:10B6C00074617274206C6F636174696F6E2066724E
:10B6D0006F6D203078257820746F20307825782E93
:10B6E000000000004D6178696D756D2052414D205C
:10B6F00073697A6520666F72206170706C6963612E
:10B7000074696F6E20697320307825782E000000F0
:10B71000172C002073645F626C655F656E61626CFC
:10B720006528292072657475726E65642025732EF4
:10B73000000000002DE9F041ADF5027D804618487B
:10B74000007818B90DF5027DBDE8F0811DE04FF4D9
:10B75000FA70049004A905A861DF044604B115E05D
:10B7600005AD104901A800F0ACF809E000BF03984E
:10B770000646376828467168B84701A800F0C2F845
:10B7800000BF03980028F1D100BFE0E700BF052CFF
:10B7900004D000BF2046FBF761FB00BF00BFD1E72C
:10B7A000172C0020ECE702001CB51B48007808B1FC
:10B7B00008201CBD012019490870002001F0C4FDBB
:10B7C000112801D10020F4E7002001F0DBFD14482E
:10B7D00000680190002000906846FBF7C1FC114909
:10B7E00001A810DF04460CB9012000E000200A493E
:10B7F00008709DF80000FBF7B9FC0CB12046D8E7B3
:10B800000020064908700849087001F0A3FF0120D4
:10B8100001F0B8FD0020CCE7142C0020162C0020ED
:10B82000C8E70200A16D0200152C00203EB50A49B0
:10B83000684600F046F809E0684600F03FF8044624
:10B8400025686068A847684600F05CF8684600F024
:10B8500035F80028F0D13EBDBCE702000148007871
:10B8600070470000142C00202DE9FF41074618E026
:10B8700003A84BDF044604B114E00F49684600F00A
:10B8800020F809E000BF029805462E686968039811
:10B89000B047684600F036F800BF02980028F1D1A2
:10B8A00000BFE5E700BF052C04D000BF2046FBF732
:10B8B000D5FA00BFBDE8FF810CE8020001468868A8
:10B8C000704770B504460D462560286860602046C4
:10B8D00000F001F870BD14E0D0E9002152689142F7
:10B8E00002D100218160704741680968426852684E
:10B8F000914203D0416809688160F4E741680831EA
:10B900004160E9E710B50446A06800B910BD2168A0
:10B91000A06889680844A060D4E901104968884299
:10B9200005D16068083060602046FFF7D4FF00BF93
:10B93000ECE770B505460E466C6806E020683146B7
:10B94000AA68904700B903E0246820680028F5D170
:10B9500000BF20683060266070BD014648680068FE
:10B96000704701464A6810684A68126822B14A68FE
:10B97000126812684B681A60704710B503460A4691
:10B980000020596807E00C68944203D114680C60E9
:10B99000012003E009680C68002CF4D100BF10BD41
:10B9A00070B502460D4B03F5947413E0E61AF010DF
:10B9B00000EBD076761003EBC6010D68954201D9F5
:10B9C0000C4606E0954202D201F1080301E0486806
:10B9D00070BD00BFA342E9D30020F9E7FCE50200F7
:10B9E00030B504462046FFF7DBFF05460DB9024897
:10B9F00030BD2846FCE70000E8E502000146D1F82A
:10BA00008004C1F8800470470246505808B10120F4
:10BA100070470020FCE708B50022425042580092CF
:10BA200000BF08BDC0F80815C0F810257047C0F861
:10BA300008137047C0F8041370470246D2F8040395
:10BA4000084008B1012070470020FCE70122425065
:10BA50007047C0F81425C0F80C1570470146D1F89E
:10BA60008004C1F8800470470246505808B1012094
:10BA700070470020FCE708B500224250425800926F
:10BA800000BF08BDC0F808154FF4A2631A507047F4
:10BA9000C0F808137047C0F804137047014640F21D
:10BAA0003C5040587047D0F800228A43C0F800222A
:10BAB0007047012242507047014640F24C504058B6
:10BAC000704740F20C53195040F214531A5070470B
:10BAD0000348006808B1012070470020FCE700001F
